:100000000C9486000C94B7000C94B7000C94B700C5
:100010000C94B7000C94B7000C94B7000C94B70084
:100020000C94B7000C94B7000C94B7000C94B70074
:100030000C94B7000C94B7000C94B7000C94B70064
:100040000C94B7000C94B7000C94B7000C94B70054
:100050000C94B7000C94B7000C94B7000C941B02DE
:100060000C94B7000C948F020C9465020C94B700AA
:100070000C94B7000C94B7000C94B7000C94B70024
:100080000C94B7000C94B7000C94B7000C94B70014
:100090000C94B7000C94B7000C94B7000C94B70004
:1000A0000C94B7000C94B7000C94B7000C94B700F4
:1000B0000C94B7000C94B7000C94B7000C94B700E4
:1000C0000C94B7000C94B7000C94B7000C94B700D4
:1000D0000C94B7000C94B7000C94B7000C94B700C4
:1000E0000C94B7000C944F010C949C010C94E60006
:1000F0000C9407040C9409010C94C5020C94B900EB
:100100000C94F5000C941701C502070411241FBEBE
:10011000CFEFD1E2DEBFCDBF00E00CBF22E0AAE10D
:10012000B2E001C01D92AA3CB207E1F712E0A0E0E4
:10013000B2E0E0E8FCE000E00BBF02C007900D92E7
:10014000AA31B107D9F710E0C5E8D0E000E006C059
:1001500021970109802FFE010E941004C438D107A5
:1001600080E00807A9F70E9439030C942E060C942E
:100170000000AF92BF92CF92DF92EF92FF920F9367
:100180001F93CF93DF936C017B018B01040F151F2D
:10019000EB015E01AE18BF08C017D10759F0699195
:1001A000D601ED91FC910190F081E02DC6011995E9
:1001B000892B79F7C501DF91CF911F910F91FF90A6
:1001C000EF90DF90CF90BF90AF900895FC01538DDA
:1001D000448D252F30E0842F90E0821B930B541721
:1001E00010F0CF96089501970895FC01918D828DAE
:1001F000981761F0A28DAE0FBF2FB11D5D968C9147
:10020000928D9F5F9F73928F90E008958FEF9FEF85
:100210000895FC01918D828D981731F0828DE80F41
:10022000F11D858D90E008958FEF9FEF0895FC01FB
:10023000918D228D892F90E0805C9F4F821B9109C8
:100240008F739927089583E292E00E94170121E0BD
:10025000892B09F420E0822F0895FC01A48DA80FBA
:10026000B92FB11DA35ABF4F2C91848D90E00196F8
:100270008F739927848FA689B7892C93A089B18918
:100280008C91837080648C93938D848D981306C0B9
:100290000288F389E02D80818F7D80830895EF921D
:1002A000FF920F931F93CF93DF93EC0181E0888F30
:1002B0009B8D8C8D98131AC0E889F989808185FF00
:1002C00015C09FB7F894EE89FF896083E889F989A2
:1002D00080818370806480839FBF81E090E0DF91A4
:1002E000CF911F910F91FF90EF900895F62E0B8DF7
:1002F00010E00F5F1F4F0F731127E02E8C8D8E11B2
:100300000CC00FB607FCFACFE889F989808185FF18
:10031000F5CFCE010E942D01F1CFEB8DEC0FFD2F1B
:10032000F11DE35AFF4FF0829FB7F8940B8FEA89D3
:10033000FB8980818062CFCFCF93DF93EC01888DE2
:100340008823B9F0AA89BB89E889F9898C9185FD50
:1003500003C0808186FD0DC00FB607FCF7CF8C91DE
:1003600085FFF2CF808185FFEDCFCE010E942D0168
:10037000E9CFDF91CF91089580E090E0892B29F0BB
:100380000E94230181110E94000080E090E0892BEF
:1003900049F080E090E0892B29F00E940000811153
:1003A0000E94000080E090E0892B49F080E090E01E
:1003B000892B29F00E94000081110E94000080E03A
:1003C00090E0892B49F080E090E0892B29F00E9491
:1003D000000081110C9400000895CF93DF93EC018D
:1003E0008091C0029091C102009759F02091C20201
:1003F0003091C3022C173D0720F081E0DF91CF91AF
:100400000895BE016F5F7F4F0E943D05009789F000
:100410009093C1028093C002D093C302C093C202E2
:100420002091C4023091C502232B39F7FC011082C0
:10043000E4CF80E0E3CF1F920F920FB60F9211240A
:100440002F933F938F939F93AF93BF9380911F02FE
:1004500090912002A0912102B091220230911E02BF
:1004600023E0230F2D3758F50196A11DB11D2093D0
:100470001E0280931F0290932002A0932102B0934A
:10048000220280911A0290911B02A0911C02B0914D
:100490001D020196A11DB11D80931A0290931B02AB
:1004A000A0931C02B0931D02BF91AF919F918F91B9
:1004B0003F912F910F900FBE0F901F90189526E837
:1004C000230F0296A11DB11DD2CF1F920F920FB61E
:1004D0000F9211240BB60F922F933F934F935F937C
:1004E0006F937F938F939F93AF93BF93EF93FF93FC
:1004F00083E292E00E942D01FF91EF91BF91AF91B5
:100500009F918F917F916F915F914F913F912F912B
:100510000F900BBE0F900FBE0F901F9018951F925B
:100520000F920FB60F9211240BB60F922F938F9349
:100530009F93EF93FF93E0913302F0913402808117
:10054000E0913902F0913A0282FD1DC090818091C4
:100550003C028F5F8F7320913D02821741F0E09142
:100560003C02F0E0ED5DFD4F958F80933C02FF91E2
:10057000EF919F918F912F910F900BBE0F900FBE17
:100580000F901F9018958081F2CF10922602109242
:10059000250288EE93E0A0E0B0E0809327029093DC
:1005A0002802A0932902B0932A028AE092E0909355
:1005B00024028093230285EC90E090933002809394
:1005C0002F0284EC90E0909332028093310280EC11
:1005D00090E0909334028093330281EC90E090930A
:1005E00036028093350282EC90E09093380280933B
:1005F000370286EC90E090933A0280933902109291
:100600003C0210923D0210923E0210923F02109264
:10061000C1021092C0021092C3021092C202109244
:10062000C5021092C40290E080E00E94ED0120918A
:10063000C0023091C102811113C02115310519F09A
:10064000C9010E94B4041092C1021092C00210921B
:10065000C5021092C4021092C3021092C202089501
:100660001092C5021092C40268E172E0C9010C94B4
:100670002706789484B5826084BD84B5816084BD8A
:1006800085B5826085BD85B5816085BD80916E0030
:10069000816080936E001092810080918100826061
:1006A000809381008091810081608093810080919E
:1006B00080008160809380008091B100846080938D
:1006C000B1008091B00081608093B0008091910072
:1006D000826080939100809191008160809391006D
:1006E000809190008160809390008091A100826051
:1006F0008093A1008091A10081608093A1008091EE
:10070000A00081608093A00080912101826080938D
:10071000210180912101816080932101809120013C
:1007200081608093200180917A00846080937A00B8
:1007300080917A00826080937A0080917A00816053
:1007400080937A0080917A00806880937A0010927A
:10075000C100E0913302F091340282E08083E091A5
:100760002F02F09130021082E0913102F0913202BA
:1007700080E1808310923B02E0913702F0913802D1
:1007800086E08083E0913502F091360280818061BD
:100790008083E0913502F091360280818860808309
:1007A000E0913502F0913602808180688083E0918B
:1007B0003502F091360280818F7D808390E080E069
:1007C0000E94ED012091C0023091C102811115C03B
:1007D0002115310519F0C9010E94B4041092C1021B
:1007E0001092C0021092C5021092C4021092C3026D
:1007F0001092C2020E94BC01E1CF1092C502109279
:10080000C40268E172E0C9010E942706F3CF80911B
:10081000C0029091C102009711F00C94B4040895A5
:10082000EE0FFF1F881F8BBF0790F691E02D1994E4
:100830000F931F93CF93DF938230910510F482E0E2
:1008400090E0E091C802F091C90230E020E0B0E011
:10085000A0E0309799F42115310509F44AC0281B0E
:10086000390B24303105D8F58A819B8161157105DA
:1008700089F1FB0193838283FE0111C04081518184
:100880000281138148175907E0F04817590799F476
:10089000109761F012960C93129713961C93329650
:1008A000CF01DF91CF911F910F9108950093C8025E
:1008B0001093C902F4CF2115310551F042175307A7
:1008C00038F0A901DB019A01BD01DF01F801C1CFB8
:1008D000EF01F9CF9093C9028093C802CDCFFE01FA
:1008E000E20FF31F819391932250310939832883BA
:1008F000D7CF2091C6023091C702232B41F420911B
:100900000202309103023093C7022093C602209165
:100910000002309101022115310541F42DB73EB797
:100920004091040250910502241B350BE091C60250
:10093000F091C702E217F307A0F42E1B3F0B281714
:10094000390778F0AC014E5F5F4F2417350748F048
:100950004E0F5F1F5093C7024093C602819391933D
:100960009FCFF0E0E0E09CCFCF93DF930097E9F0DA
:10097000FC01329713821282A091C802B091C90281
:10098000ED0130E020E01097A1F420813181820F49
:10099000931F2091C6023091C7022817390709F02A
:1009A00061C0F093C702E093C602DF91CF91089532
:1009B000EA01CE17DF07E8F54A815B819E01411508
:1009C0005105B1F7E901FB83EA8349915991C40FBD
:1009D000D51FEC17FD0761F4808191810296840F89
:1009E000951FE90199838883828193819B838A8300
:1009F000F0E0E0E012968D919C9113970097B9F585
:100A00002D913C911197CD010296820F931F209159
:100A1000C6023091C7022817390739F6309751F5C9
:100A20001092C9021092C802B093C702A093C602E6
:100A3000BCCFD383C28340815181840F951FC817D7
:100A4000D90761F44E5F5F4F88819981480F591F24
:100A5000518340838A819B81938382832115310551
:100A600009F0B0CFF093C902E093C8029ECFFD0118
:100A7000DC01C0CF13821282D7CF4F925F926F9268
:100A80007F928F929F92AF92BF92CF92DF92EF921E
:100A9000FF920F931F93CF93DF938C01009799F4EC
:100AA000CB01DF91CF911F910F91FF90EF90DF90DD
:100AB000CF90BF90AF909F908F907F906F905F90FE
:100AC0004F900C941804FC01E60FF71F9C01225074
:100AD0003109E217F30708F4AEC0D901CD91DC91DA
:100AE0001197C617D70720F1C530D10578F0CE0190
:100AF00004978617970750F0C61BD70B2297C19310
:100B0000D1936D937C93CF010E94B404C801DF910F
:100B1000CF911F910F91FF90EF90DF90CF90BF90FA
:100B2000AF909F908F907F906F905F904F900895BF
:100B30005B01AC1ABD0A4C018C0E9D1EA091C8022F
:100B4000B091C902512C412CF12CE12C109731F5B8
:100B50008091C6029091C7028815990509F05CC082
:100B60004616570608F058C0809100029091010285
:100B7000009741F48DB79EB7409104025091050251
:100B8000841B950BE817F90708F055C0F093C702CE
:100B9000E093C602F90171836083B8CF8D919C9177
:100BA000119712966C90129713967C901397A81534
:100BB000B90559F56C0142E0C40ED11CCA14DB041E
:100BC00020F1AC014A195B09DA011296159780F001
:100BD0006282738251834083D9016D937C93E114C7
:100BE000F10471F0D7011396FC93EE9312978ECF18
:100BF00022968C0F9D1FF90191838083F301EFCF23
:100C0000F093C902E093C80281CF4816590608F450
:100C10002C017D01D3019ACFCB010E9418047C01E5
:100C2000009749F0AE01B8010E941E06C8010E945B
:100C3000B40487016BCF10E000E068CFFB01DC015A
:100C400002C001900D9241505040D8F70895FB0129
:100C5000DC0101900D920020E1F7089510E0C5E855
:100C6000D0E000E006C0802FFE010E941004219613
:100C7000011DC638D10780E00807A9F7F894FFCF17
:100C80000000CA028000000000004F01B900E60029
:0A0C90009C011701F50009010000A6
:00000001FF
