:100000000C9476010C94A7010C94A7010C94A70101
:100010000C94A7010C94A7010C94A7010C94A701C0
:100020000C94A7010C94A7010C94A7010C94A701B0
:100030000C94A7010C94A7010C94A7010C94A701A0
:100040000C94A7010C946E080C94A7010C94A701C2
:100050000C94A7010C94A7010C94A7010C943A07E7
:100060000C94A7010C94AE070C9484070C94A70180
:100070000C94A7010C94A7010C94A7010C94A70160
:100080000C9440080C94A7010C94A7010C94A701B0
:100090000C94A7010C94A7010C94A7010C94A70140
:1000A0000C94A7010C94A7010C9412080C94A701BE
:1000B0000C94A7010C94A7010C94A7010C94E407DD
:1000C0000C94A7010C94A7010C94A7010C94A70110
:1000D0000C94A7010C94A7010C94A7010C94A70100
:1000E0000C94A7010C94320C0C94B8030C943A0CA9
:1000F0000C947A020C944E040C9468020C945E02E8
:100100000C94140C0C946C020C9426030C941C0C90
:100110000C94D00B0C94BF0C0C94440C0C94510216
:100120000C94AE030C9455020C9476020C94E104EA
:100130000C946D030C94260C0C94F40B0C94840218
:100140000C9470020C9488020C940C0C0C944902D0
:100150000C9463030C941E030C9458020C94DC0B57
:100160000C94FA030C949C080C9451030C94240CEA
:100170000C9494040C943F030C94000C0C9477039F
:100180000C9483020C945C040C94E80B0C94BE0356
:100190000C9435030C9462020C94A4030C944D024D
:1001A0000C942B030C947E020C9459030C9486033C
:1001B0000C9443020C94EB030C9490030C949A035C
:1001C0000C942A0C0C944903000020002300260004
:1001D00029002C002F00320000010000030106015D
:1001E000090100002100240027002A002D00300012
:1001F000330001010000040107010A010000220090
:10020000250028002B002E003100340002010000E0
:10021000050108010B010505050507050808080883
:10022000020202020A0A080804040404010101018E
:100230000101010103030303030303030407070789
:100240000C0C0C0C0C0C0C0C02020202060606062E
:10025000060606060B0B0B0B0B0B0B0B01021020FB
:1002600020080810204010204080020102010804EC
:100270000201010204081020408080402010080480
:1002800002018004020180402010080402010804D9
:10029000020101020408102040800102040810201D
:1002A000408000000A0B02090C0D0E080703040130
:1002B000000000000000000000000000000000003E
:1002C000000000000000000000000000000012110B
:1002D000100000000000000000000000000000000E
:1002E00000000000000000009C08BF0C11241FBE8D
:1002F000CFEFD1E2DEBFCDBF00E00CBF12E0A0E047
:10030000B2E0E6EFFEE100E00BBF02C007900D9205
:10031000A436B107D9F724E0A4E6B2E001C01D92EB
:10032000AE31B207E1F711E0C5E7D1E000E006C069
:1003300021970109802FFE010E94420DC437D10789
:1003400080E00807A9F70E94A5090C94690F0C9496
:100350000000CF92DF92EF92FF92DC01A03282E0A8
:10036000B807D4F5A53BB10514F0A4EBB0E040917B
:10037000180428E830E0241B310947FD3395220F8B
:10038000331F220F331F6901330FEE08FF0840911E
:10039000190428E532E0241B310947FD3395220F6B
:1003A000331F220F331F032E000C440B550B2C1947
:1003B0003D094E095F09B7FF02C0B0E0A0E00E940E
:1003C000FD0C24EB30E040E050E00E94D30CC20E64
:1003D000D31EE41EF51ED601E0911704E03380F52C
:1003E0002091180488E890E0821B910927FD9395DD
:1003F000880F991F880F991FA817B90784F02091BB
:10040000190488E592E0821B910927FD9395880FD6
:10041000991F880F991FA817B9070CF4CD010297EF
:10042000880F991F4FB7F8942E2F30E0F901EE0F87
:10043000FF1FE20FF31FE05FFC4F928381834FBFEA
:10044000FF90EF90DF90CF9008958150823108F0B7
:100450005AC0E82FF0E08827EF5CFD4F8F4F0C94D7
:10046000420D51025502430249024D0283025802D5
:100470005E02620268026C02700276027A028302F5
:100480007E0284028802809180008F7780938000B2
:100490000895809180008F7DF9CF80918000877FC3
:1004A000F5CF84B58F7784BD089584B58F7DFBCF5C
:1004B0008091B0008F778093B00008958091B00054
:1004C0008F7DF9CF809190008F7780939000089571
:1004D000809190008F7DF9CF80919000877FF5CF3C
:1004E0008091A0008F778093A00008958091A00054
:1004F0008F7DF9CF8091A000877FF5CF809120017B
:100500008F77809320010895809120018F7DF9CF0E
:1005100080912001877FF5CF1F93CF93DF93282F02
:1005200030E0F901EE55FD4F8491F901E45AFD4F99
:10053000D491F901EA5EFD4FC491CC23A9F0162FA6
:1005400081110E942502EC2FF0E0EE0FFF1FE45016
:10055000FE4FA591B4918FB7F894EC91111108C09A
:10056000D095DE23DC938FBFDF91CF911F9108954B
:10057000DE2BF8CFCF93DF9390E0FC01E45AFD4FE0
:1005800024918A5E9D4FFC0184918823D1F090E0F4
:10059000880F991FFC01EE51FE4FA591B491FC010B
:1005A000E450FE4FC591D491623071F49FB7F89436
:1005B0003C91822F809583238C93E8812E2B288376
:1005C0009FBFDF91CF9108958FB7F894EC912E2BB8
:1005D0002C938FBFF6CF1F93CF93DF93182FEB0190
:1005E00061E00E94BA02209739F460E0812FDF9128
:1005F000CF911F910C948C02E12FF0E0EE55FD4F4E
:10060000E491E150E23108F0B3C0F0E08827E45F04
:10061000FC4F8F4F0C94420D1E0326032B03350312
:100620003F03B80349035103590363036D03770381
:1006300086039003B8039A03A403AE0384B58068CD
:1006400084BDC7BDDF91CF911F91089584B58062AD
:1006500084BDC8BDF7CF8091800080688093800002
:10066000D0938900C0938800EDCF80918000806294
:1006700080938000D0938B00C0938A00E3CF809159
:100680008000886080938000D0938D00C0938C00A0
:10069000D9CF8091B00080688093B000C093B30040
:1006A000D1CF8091B00080628093B000C093B4003D
:1006B000C9CF80919000806880939000D09399007A
:1006C000C0939800BFCF809190008062809390008B
:1006D000D0939B00C0939A00B5CF80919000886022
:1006E00080939000D0939D00C0939C00ABCF8091ED
:1006F000A00080688093A0008091A0008F7B8093F1
:10070000A000D093A900C093A8009CCF8091A00026
:1007100080628093A000D093AB00C093AA0092CFD8
:100720008091A00088608093A000D093AD00C0931A
:10073000AC0088CF80912001806880932001D09305
:100740002901C09328017ECF80912001806280938F
:100750002001D0932B01C0932A0174CF80912001F6
:10076000886080932001D0932D01C0932C016ACF23
:10077000C038D1050CF439CF61E038CFAF92BF92C9
:10078000CF92DF92EF92FF920F931F93CF93DF935D
:100790006C017B018B01040F151FEB015E01AE188C
:1007A000BF08C017D10759F06991D601ED91FC91AE
:1007B0000190F081E02DC6011995892B79F7C501CB
:1007C000DF91CF911F910F91FF90EF90DF90CF902D
:1007D000BF90AF900895FC01538D448D252F30E0DC
:1007E000842F90E0821B930B541710F0CF9608953E
:1007F00001970895FC01918D828D981761F0A28D6B
:10080000AE0FBF2FB11D5D968C91928D9F5F9F7330
:10081000928F90E008958FEF9FEF08952FB7F8948F
:1008200080916F0290917002A0917102B09172025A
:100830002FBF80937B0290937C02A0937D02B093A4
:100840007E0283E792E00E94FA0397FF26C02FB74B
:10085000F89480916F0290917002A0917102B09112
:1008600072022FBF40917B0250917C0260917D0209
:1008700070917E02841B950BA60BB70B40917702FB
:10088000509178026091790270917A0284179507ED
:10089000A607B707B0F28FEF9FEF0895FC01918D87
:1008A000828D981731F0828DE80FF11D858D90E0D3
:1008B00008958FEF9FEF0895FC01918D228D892F70
:1008C00090E0805C9F4F821B91098F739927089558
:1008D00083E792E00E945C0421E0892B09F420E088
:1008E000822F0895FC01A48DA80FB92FB11DA35A22
:1008F000BF4F2C91848D90E001968F739927848F40
:10090000A689B7892C93A089B1898C918370806462
:100910008C93938D848D981306C00288F389E02D03
:1009200080818F7D80830895EF92FF920F931F93B4
:10093000CF93DF93EC0181E0888F9B8D8C8D981392
:100940001AC0E889F989808185FF15C09FB7F8949E
:10095000EE89FF896083E889F989808183708064EA
:1009600080839FBF81E090E0DF91CF911F910F9135
:10097000FF90EF900895F62E0B8D10E00F5F1F4F44
:100980000F731127E02E8C8D8E110CC00FB607FC53
:10099000FACFE889F989808185FFF5CFCE010E94E1
:1009A0007204F1CFEB8DEC0FFD2FF11DE35AFF4FD9
:1009B000F0829FB7F8940B8FEA89FB89808180626F
:1009C000CFCFCF93DF93EC01888D8823B9F0AA892C
:1009D000BB89E889F9898C9185FD03C0808186FDFA
:1009E0000DC00FB607FCF7CF8C9185FFF2CF808149
:1009F00085FFEDCFCE010E947204E9CFDF91CF9148
:100A0000089580E090E0892B29F00E94680481110C
:100A10000E94000080E090E0892B49F080E090E0A7
:100A2000892B29F00E94000081110E94000080E0C3
:100A300090E0892B49F080E090E0892B29F00E941A
:100A4000000081110E94000080E090E0892B49F0B5
:100A500080E090E0892B29F00E94000081110C9425
:100A600000000895AF92BF92CF92DF92EF92FF9273
:100A70000F931F93CF93DF936B017A01EC01CC5955
:100A8000DD4F28813CE0389F8001399F100D1124F3
:100A9000A090A003B12C27FF1FC0FB011182108280
:100AA00088818F5F888388819801280F311D87FD99
:100AB0003A95F6012A153B051CF488818C30C4F167
:100AC00080819181049680349C4908F473C0F601BA
:100AD00080819181049670C088819801280F311D12
:100AE00087FD3A952A153B05DCF68881A801480F59
:100AF000511D87FD5A95FA01EE0FFF1FE40FF51FF8
:100B0000E05FFC4F808186FFCBCF8881F801E80F42
:100B1000F11D87FDFA95CF01EE0FFF1FE80FF91FBA
:100B2000E05FFC4F808160E08F730E948C02B8CF41
:100B3000808191812881A801420F511D27FD5A957E
:100B40009A01FA01EE0FFF1FE20FF31FE05FFC4F67
:100B500021813281820F931FF701918380838881E5
:100B60009801280F311D87FD3A95F901EE0FFF1FFF
:100B7000E20FF31FE05FFC4F808186FF22C0888177
:100B8000080F111D87FD1A95F801EE0FFF1FE00FEA
:100B9000F11FE05FFC4F808161E08F73DF91CF91A7
:100BA0001F910F91FF90EF90DF90CF90BF90AF908B
:100BB0000C948C0280E49CE9F701918380838FEF91
:100BC0008883DF91CF911F910F91FF90EF90DF907D
:100BD000CF90BF90AF90089560E085E00E948C02B6
:100BE00060E086E00E948C0270E060E087E00C9498
:100BF000EB0260E083E00E948C0260E084E00E94EF
:100C00008C0270E060E082E00C94EB02CF93DF9303
:100C1000EC01672B71F461E083E00E948C0260E0DC
:100C200084E00E948C02BE0182E0DF91CF910C949F
:100C3000EB0260E083E00E948C0261E0F1CF42E0D1
:100C400050E06AE272E083E792E00C94BE0340E079
:100C500052E030E020E04D5F5F4FFA013297608153
:100C600071816817790749F4F901EE0FFF1FE20F50
:100C7000F31FE050FE4F808108952F5F3F4F2630D5
:100C8000310549F74EE050E06DE272E083E792E013
:100C90000E94BE030E941F0680E008958AE090E053
:100CA0000E942706811123C061E085E00E948C022A
:100CB00060E086E00E948C0262E870E087E00E94BB
:100CC000EB028CE090E00E942706811113C061E0E6
:100CD00070E086E990E00E9406068CE090E00E94B9
:100CE0002706882351F08AE090E00C9427060E94A2
:100CF000EC05E7CF0E94F905F0CF80E008958BE086
:100D000090E00E942706811123C060E085E00E94E8
:100D10008C0261E086E00E948C0262E870E087E06D
:100D20000E94EB028DE090E00E942706811113C023
:100D300070E060E086E990E00E9406068DE090E0B9
:100D40000E942706882351F08BE090E00C94270640
:100D50000E94EC05E7CF0E94F905F0CF80E00895EE
:100D6000CF9386E190E00E942706C82F811104C02E
:100D700080E590E00E94A9018C2FCF910895CF9338
:100D80008AE190E00E942706C82F811104C084E602
:100D900090E00E94A9018C2FCF910895FC018081E1
:100DA0009181009711F00C94E60D08950F931F9315
:100DB000CF93DF93EC0188819981009759F02A81C4
:100DC0003B812617370730F081E0DF91CF911F91EB
:100DD0000F9108958B016F5F7F4F0E946F0E0097F8
:100DE00059F0998388831B830A832C813D81232BAF
:100DF00059F7FC011082E8CF80E0E7CFEF92FF9235
:100E00000F931F93CF93DF93EC017B01198218821C
:100E10001B821A821D821C82FB0101900020E9F7CF
:100E200031978F01061B170BB8010E94D606288147
:100E30003981811113C02115310519F0C9010E94B2
:100E4000E60D198218821D821C821B821A82DF9194
:100E5000CF911F910F91FF90EF9008951D830C8308
:100E6000B701C901DF91CF911F910F91FF90EF90D2
:100E70000C94620F1F920F920FB60F9211242F93B2
:100E80003F938F939F93AF93BF9380916F02909105
:100E90007002A0917102B091720230916E0223E053
:100EA000230F2D3758F50196A11DB11D20936E0219
:100EB00080936F0290937002A0937102B0937202BC
:100EC00080916A0290916B02A0916C02B0916D02C8
:100ED0000196A11DB11D80936A0290936B02A093AD
:100EE0006C02B0936D02BF91AF919F918F913F9132
:100EF0002F910F900FBE0F901F90189526E8230F8B
:100F00000296A11DB11DD2CF1F920F920FB60F9264
:100F100011240BB60F922F933F934F935F936F93D0
:100F20007F938F939F93AF93BF93EF93FF9383E749
:100F300092E00E947204FF91EF91BF91AF919F9157
:100F40008F917F916F915F914F913F912F910F9072
:100F50000BBE0F900FBE0F901F9018951F920F920F
:100F60000FB60F9211240BB60F922F938F939F936E
:100F7000EF93FF93E0918302F09184028081E091EE
:100F80008902F0918A0282FD1DC0908180918C02BD
:100F90008F5F8F7320918D02821741F0E0918C0258
:100FA000F0E0ED58FD4F958F80938C02FF91EF910B
:100FB0009F918F912F910F900BBE0F900FBE0F90AE
:100FC0001F9018958081F2CF1F920F920FB60F924B
:100FD00011240BB60F922F933F934F935F936F9310
:100FE0007F938F939F93AF93BF93EF93FF9348E2C9
:100FF00051E064E271E090E080E00E943205FF91F0
:10100000EF91BF91AF919F918F917F916F915F9180
:101010004F913F912F910F900BBE0F900FBE0F90ED
:101020001F9018951F920F920FB60F9211240BB6B6
:101030000F922F933F934F935F936F937F938F9371
:101040009F93AF93BF93EF93FF9348EA50E064EA16
:1010500070E083E090E00E943205FF91EF91BF9134
:10106000AF919F918F917F916F915F914F913F9140
:101070002F910F900BBE0F900FBE0F901F901895E1
:101080001F920F920FB60F9211240BB60F922F934F
:101090003F934F935F936F937F938F939F93AF9300
:1010A000BF93EF93FF9348E950E064E970E082E07A
:1010B00090E00E943205FF91EF91BF91AF919F9117
:1010C0008F917F916F915F914F913F912F910F90F1
:1010D0000BBE0F900FBE0F901F9018951F920F928E
:1010E0000FB60F9211240BB60F922F933F934F938D
:1010F0005F936F937F938F939F93AF93BF93EF9380
:10110000FF9348E850E064E870E081E090E00E94DE
:101110003205FF91EF91BF91AF919F918F917F9198
:101120006F915F914F913F912F910F900BBE0F9058
:101130000FBE0F901F9018951092760210927502B4
:1011400088EE93E0A0E0B0E080937702909378027D
:10115000A0937902B0937A028CE192E090937402AA
:101160008093730285EC90E09093800280937F02DD
:1011700084EC90E0909382028093810280EC90E076
:10118000909384028093830281EC90E09093860296
:101190008093850282EC90E090938802809387028E
:1011A00086EC90E090938A028093890210928C02E0
:1011B00010928D0210928E0210928F028091A003E5
:1011C000803308F0BEC091E0980F9093A003809305
:1011D000170490E0FC01EE0FFF1FE80FF91FE05F1E
:1011E000FC4F88EB9BE0928381831092A8031092BE
:1011F000A7036CE372E089EA93E00E94FE0681E0B7
:1012000090E09093B0038093AF036EE372E081EBC4
:1012100093E00E94FE0682E090E09093B8038093F2
:10122000B70361E472E089EB93E00E94FE0683E07D
:1012300090E09093C0038093BF0364E472E081EC7C
:1012400093E00E94FE0684E090E09093C8038093B0
:10125000C70367E472E089EC93E00E94FE0685E034
:1012600090E09093D0038093CF036AE472E081ED25
:1012700093E00E94FE0686E090E09093D80380936E
:10128000D7036DE472E089ED93E00E94FE0687E0EB
:1012900090E09093E0038093DF0360E572E081EEDD
:1012A00093E00E94FE0688E090E09093E80380932C
:1012B000E70363E572E089EE93E00E94FE0689E0B1
:1012C00090E09093F0038093EF0366E572E081EF86
:1012D00093E00E94FE068AE090E09093F8038093EA
:1012E000F70368E572E089EF93E00E94FE068BE069
:1012F00090E0909300048093FF036BE572E081E03F
:1013000094E00E94FE068CE090E0909308048093A5
:1013100007046EE572E089E094E00E94FE068DE02D
:1013200090E09093100480930F0461E672E081E1F5
:1013300094E00E94FE066CE272E081EA93E00C9475
:10134000FE068FEF8093170450CFCF93DF9300D02A
:1013500000D01F921F92CDB7DEB7789484B582601B
:1013600084BD84B5816084BD85B5826085BD85B549
:10137000816085BD80916E00816080936E001092C7
:101380008100809181008260809381008091810042
:1013900081608093810080918000816080938000D3
:1013A0008091B10084608093B1008091B000816031
:1013B0008093B00080919100826080939100809131
:1013C0009100816080939100809190008160809372
:1013D00090008091A10082608093A1008091A10083
:1013E00081608093A1008091A00081608093A00023
:1013F000809121018260809321018091210181608F
:10140000809321018091200181608093200180914F
:101410007A00846080937A0080917A008260809361
:101420007A0080917A00816080937A0080917A00BE
:10143000806880937A001092C10010926902109225
:101440006802E0918302F091840282E08083E0915F
:101450007F02F09180021082E0918102F09182027D
:1014600080E1808310928B02E0918702F0918802E4
:1014700086E08083E0918502F09186028081806120
:101480008083E0918502F09186028081886080836C
:10149000E0918502F0918602808180688083E091EE
:1014A0008502F091860280818F7D808362E08BE0EF
:1014B0000E94BA0262E08AE00E94BA0262E08CE016
:1014C0000E94BA0262E08DE00E94BA0261E083E00D
:1014D0000E94BA0261E084E00E94BA0261E085E005
:1014E0000E94BA0261E086E00E94BA0261E082E0F6
:1014F0000E94BA0261E087E00E94BA02809117045C
:10150000803308F054C061E088E00E94BA02809104
:101510001704282F30E0F901EE0FFF1FE20FF31F31
:10152000E05FFC4F9081907C986090839EE8909360
:10153000180494E6909319042CE0622F0E94360D53
:10154000829FB001112430E020E0AB01420F531F15
:10155000FA01EE0FFF1FE40FF51FE05FFC4F9081D3
:1015600096FD17C02F5F3F4F2C30310571F781304A
:1015700009F084C01092800082E080938100109274
:10158000850010928400B19A80916F0082608093F0
:101590006F00E09117048E2F90E0FC01EE0FFF1F0B
:1015A000E80FF91FE05FFC4F80818064808361E079
:1015B00088E00E94BA0262E086E10E94BA0262E01C
:1015C0008AE10E94BA023CE0232E312C4BE0442EEB
:1015D000512C5AE0652E712C70E060E081EA93E0B6
:1015E0000E94D6062091A1033091A203811172C0FE
:1015F0002115310519F0C9010E94E60D1092A203D0
:101600001092A1031092A6031092A5031092A403B6
:101610001092A30300E012E082E192E080179107AC
:1016200009F462C0F801E180F28097013327F901E3
:10163000EE55FD4F8491F901E45AFD4FC490F90134
:10164000EA5EFD4FD490DD2009F452C181110E9461
:101650002502ED2DF0E0EE0FFF1FE853FE4FA591A0
:10166000B491EC91CE2209F443C1FAE1EF16F104F2
:1016700009F043C181E0F801808341C1823061F407
:101680001092900080939100109295001092940017
:1016900088BB809371007DCF833069F41092A000E5
:1016A00082E08093A1001092A5001092A40089BB53
:1016B000809372006ECF81116CCF1092200182E076
:1016C0008093210110922501109224018ABB8093FE
:1016D00073005FCF1092A6031092A5036CE272E034
:1016E000C9010E94620F96CF83E792E00E945C04DA
:1016F000892B09F428C16CE272E0CE0101960E94A8
:10170000FE060E940E04ED80FE8097FD1DC08A300B
:101710009105D1F08F8318869FEFE91AF90AB70176
:10172000CE0101960E94D606882359F329813A8179
:101730008D819E81BE01695F7F4F820F931F0E9442
:10174000620FFE82ED82DDCFA980BA8097EAC92EB2
:1017500093E0D92E10E000E0F601868197818E1586
:101760009F05A9F462817381A114B10409F4CAC070
:101770006115710541F4E114F10409F4D2C0F501D9
:10178000808190E0CBC0C5010E94590FC7C00F5F98
:101790001F4FF8E0CF0ED11C0E301105E9F6CBC07B
:1017A0000E94F9050E94EC058AE590E00E94A901DB
:1017B00010926902109268028DE090E00E94270664
:1017C000811182C070E060E086E990E00E94060628
:1017D0008CE090E00E94270681117BC061E070E000
:1017E00086E990E00E9406068BE090E00E942706C2
:1017F000811174C070E060E082E890E00E9406060B
:101800008AE090E00E94270681116DC061E070E0DF
:1018100082E890E00E9406060E947F06882321F05D
:1018200010926902109268020E944E06882321F0ED
:1018300010926902109268020E94BF06882321F06C
:1018400010926902109268020E94B00670926902BA
:10185000609268020E94BF06882321F050926902BC
:10186000409268020E947F06882321F0309269022C
:10187000209268020E94B006882331F08DE090E04B
:1018800090936902809368020E944E06882321F09B
:1018900010926902109268024091A5035091A6032C
:1018A0004115510571F06091A1037091A203FB01F4
:1018B0008081882331F083E792E00E94BE030E947A
:1018C0001F060E94010588CE1092690210926802DC
:1018D0007FCF109269021092680286CF109269023F
:1018E000109268028DCF109269021092680294CF14
:1018F0008AE1E816F10409F0BDCEF80110820D5F0F
:101900001F4F8ACE6115710561F0E114F10449F0B1
:10191000FB01808190E0919581959109892B09F0D7
:1019200036CF83E0000F111F8A95E1F7F801E955E2
:10193000FC4F808091809092690280926802CE0173
:1019400001960E94CE06E0916802F0916902EE30A5
:10195000F10508F0A1CF8827EF54F34F8F4F0C9477
:10196000420DD00BDC0BE80BF40B000C0C0C140C30
:101970001C0C240C260C2A0C320C3A0C440CCF9371
:10198000DF9381EA93E00E94CE06C7E1D4E0289776
:10199000CE0102960E94CE0683E0C73AD807B9F777
:1019A000DF91CF910895052E97FB1EF400940E94BD
:1019B000EA0C57FD07D00E94050D07FC03D04EF43A
:1019C0000C94EA0C50954095309521953F4F4F4F20
:1019D0005F4F089590958095709561957F4F8F4FDB
:1019E0009F4F08950E94270DA59F900DB49F900DC5
:1019F000A49F800D911D11240895B7FF0C94F20C43
:101A00000E94F20C821B930B0895A1E21A2EAA1BCE
:101A1000BB1BFD010DC0AA1FBB1FEE1FFF1FA2179E
:101A2000B307E407F50720F0A21BB30BE40BF50B9B
:101A3000661F771F881F991F1A9469F76095709524
:101A4000809590959B01AC01BD01CF010895A29FA7
:101A5000B001B39FC001A39F700D811D1124911D82
:101A6000B29F700D811D1124911D0895991B79E07D
:101A700004C0991F961708F0961B881F7A95C9F71E
:101A800080950895EE0FFF1F881F8BBF0790F6917A
:101A9000E02D19940F931F93CF93DF93823091051C
:101AA00010F482E090E0E0911C04F0911D0430E01D
:101AB00020E0B0E0A0E0309799F42115310509F459
:101AC0004AC0281B390B24303105D8F58A819B8107
:101AD0006115710589F1FB0193838283FE0111C0B9
:101AE000408151810281138148175907E0F048175E
:101AF000590799F4109761F012960C931297139668
:101B00001C933296CF01DF91CF911F910F910895D1
:101B100000931C0410931D04F4CF2115310551F0DE
:101B20004217530738F0A901DB019A01BD01DF011B
:101B3000F801C1CFEF01F9CF90931D0480931C04ED
:101B4000CDCFFE01E20FF31F819391932250310913
:101B500039832883D7CF20911A0430911B04232B7B
:101B600041F4209114023091150230931B0420930C
:101B70001A0420911202309113022115310541F40B
:101B80002DB73EB74091160250911702241B350B1A
:101B9000E0911A04F0911B04E217F307A0F42E1B46
:101BA0003F0B2817390778F0AC014E5F5F4F2417C1
:101BB000350748F04E0F5F1F50931B0440931A04E3
:101BC000819391939FCFF0E0E0E09CCFCF93DF93A0
:101BD0000097E9F0FC01329713821282A0911C0455
:101BE000B0911D04ED0130E020E01097A1F42081B8
:101BF0003181820F931F20911A0430911B04281702
:101C0000390709F061C0F0931B04E0931A04DF91D7
:101C1000CF910895EA01CE17DF07E8F54A815B818D
:101C20009E0141155105B1F7E901FB83EA83499112
:101C30005991C40FD51FEC17FD0761F48081918184
:101C40000296840F951FE90199838883828193818D
:101C50009B838A83F0E0E0E012968D919C9113972C
:101C60000097B9F52D913C911197CD010296820F05
:101C7000931F20911A0430911B042817390739F655
:101C8000309751F510921D0410921C04B0931B0460
:101C9000A0931A04BCCFD383C28340815181840FA7
:101CA000951FC817D90761F44E5F5F4F88819981EE
:101CB000480F591F518340838A819B81938382837C
:101CC0002115310509F0B0CFF0931D04E0931C04F9
:101CD0009ECFFD01DC01C0CF13821282D7CF4F927D
:101CE0005F926F927F928F929F92AF92BF92CF92AC
:101CF000DF92EF92FF920F931F93CF93DF938C01AC
:101D0000009799F4CB01DF91CF911F910F91FF9034
:101D1000EF90DF90CF90BF90AF909F908F907F908B
:101D20006F905F904F900C944A0DFC01E60FF71FE7
:101D30009C0122503109E217F30708F4AEC0D90123
:101D4000CD91DC911197C617D70720F1C530D10589
:101D500078F0CE0104978617970750F0C61BD70B73
:101D60002297C193D1936D937C93CF010E94E60D8E
:101D7000C801DF91CF911F910F91FF90EF90DF90FD
:101D8000CF90BF90AF909F908F907F906F905F901B
:101D90004F9008955B01AC1ABD0A4C018C0E9D1E3C
:101DA000A0911C04B0911D04512C412CF12CE12C6C
:101DB000109731F580911A0490911B0488159905AC
:101DC00009F05CC04616570608F058C08091120210
:101DD00090911302009741F48DB79EB7409116027F
:101DE00050911702841B950BE817F90708F055C0AE
:101DF000F0931B04E0931A04F90171836083B8CF58
:101E00008D919C91119712966C90129713967C90DD
:101E10001397A815B90559F56C0142E0C40ED11C01
:101E2000CA14DB0420F1AC014A195B09DA011296ED
:101E3000159780F06282738251834083D9016D933C
:101E40007C93E114F10471F0D7011396FC93EE93A7
:101E500012978ECF22968C0F9D1FF901918380835C
:101E6000F301EFCFF0931D04E0931C0481CF4816DB
:101E7000590608F42C017D01D3019ACFCB010E94B1
:101E80004A0D7C01009749F0AE01B8010E94500F45
:101E9000C8010E94E60D87016BCF10E000E068CF1B
:101EA000FB01DC0102C001900D9241505040D8F777
:101EB0000895FB01DC018D91019080190110D9F387
:101EC000990B0895FB01DC0101900D920020E1F7D0
:101ED000089511E0C5E7D1E000E006C0802FFE01C3
:101EE0000E94420D2196011DC637D10780E00807E8
:061EF000A9F7F894FFCFF2
:101EF600000D00000C00000B00000A000016000098
:101F06001A0000001E048000000000009404BE03B6
:101F1600EB03E1045C04FA034E040D0A006E6F2025
:101F260073756368207377697463680073007275EC
:101F3600007264006C75006C640061750061640079
:101F46006166006162006D006D6F006D75006D6900
:041F5600006D6400B6
:00000001FF
