:100000000C9476010C94A7010C94A7010C94A70101
:100010000C94A7010C94A7010C94A7010C94A701C0
:100020000C94A7010C94A7010C94A7010C94A701B0
:100030000C94A7010C94A7010C94A7010C94A701A0
:100040000C94A7010C94F9080C94A7010C94A70137
:100050000C94A7010C94A7010C94A7010C94C5075C
:100060000C94A7010C9439080C940F080C94A70168
:100070000C94A7010C94A7010C94A7010C94A70160
:100080000C94CB080C94A7010C94A7010C94A70125
:100090000C94A7010C94A7010C94A7010C94A70140
:1000A0000C94A7010C94A7010C949D080C94A70133
:1000B0000C94A7010C94A7010C94A7010C946F0851
:1000C0000C94A7010C94A7010C94A7010C94A70110
:1000D0000C94A7010C94A7010C94A7010C94A70100
:1000E0000C94A7010C949B030C943E040C94A40C58
:1000F0000C947A020C944C040C94DB030C9468026C
:100100000C942C030C945E020C943E030C94EA03B2
:100110000C946C020C940F0D0C945A030C9418035D
:100120000C946A0D0C9451020C94AE030C9446038B
:100130000C940E030C9455020C94AD0C0C947602A6
:100140000C94EB0C0C9484020C9470020C948802B6
:100150000C9449020C94140D0C94D40C0C94580279
:100160000C9436030C94FD0C0C94D1040C942709C8
:100170000C9413030C9484040C9487030C94CE0CFD
:100180000C9450030C94B80C0C94A5030C948302AB
:100190000C94740C0C9422030C9462020C944D0287
:1001A0000C94D10C0C9464030C94D90C0C947E0226
:1001B0000C9491030C9443020C94C10C0C947D0399
:1001C0000C9473030C94CB0C000020002300260039
:1001D00029002C002F00320000010000030106015D
:1001E000090100002100240027002A002D00300012
:1001F000330001010000040107010A010000220090
:10020000250028002B002E003100340002010000E0
:10021000050108010B010505050507050808080883
:10022000020202020A0A080804040404010101018E
:100230000101010103030303030303030407070789
:100240000C0C0C0C0C0C0C0C02020202060606062E
:10025000060606060B0B0B0B0B0B0B0B01021020FB
:1002600020080810204010204080020102010804EC
:100270000201010204081020408080402010080480
:1002800002018004020180402010080402010804D9
:10029000020101020408102040800102040810201D
:1002A000408000000A0B02090C0D0E080703040130
:1002B000000000000000000000000000000000003E
:1002C000000000000000000000000000000012110B
:1002D000100000000000000000000000000000000E
:1002E000000000000000000027096A0D11241FBE55
:1002F000CFEFD1E2DEBFCDBF00E00CBF12E0A0E047
:10030000B2E0ECE4F0E200E00BBF02C007900D9217
:10031000A437B107D9F724E0A4E7B2E001C01D92E9
:10032000AE32B207E1F711E0C5E7D1E000E006C068
:1003300021970109802FFE010E94ED0DC437D107DE
:1003400080E00807A9F70E94300A0C9414100C945E
:100350000000CF92DF92EF92FF92DC01A03282E0A8
:10036000B807D4F5A53BB10514F0A4EBB0E040917B
:10037000280428E830E0241B310947FD3395220F7B
:10038000331F220F331F6901330FEE08FF0840911E
:10039000290428E532E0241B310947FD3395220F5B
:1003A000331F220F331F032E000C440B550B2C1947
:1003B0003D094E095F09B7FF02C0B0E0A0E00E940E
:1003C000A80D24EB30E040E050E00E947E0DC20E0C
:1003D000D31EE41EF51ED601E0912704E03380F51C
:1003E0002091280488E890E0821B910927FD9395CD
:1003F000880F991F880F991FA817B90784F02091BB
:10040000290488E592E0821B910927FD9395880FC6
:10041000991F880F991FA817B9070CF4CD010297EF
:10042000880F991F4FB7F8942E2F30E0F901EE0F87
:10043000FF1FE20FF31FE05EFC4F928381834FBFEB
:10044000FF90EF90DF90CF9008958150823108F0B7
:100450005AC0E82FF0E08827EF5CFD4F8F4F0C94D7
:10046000ED0D51025502430249024D02830258022A
:100470005E02620268026C02700276027A028302F5
:100480007E0284028802809180008F7780938000B2
:100490000895809180008F7DF9CF80918000877FC3
:1004A000F5CF84B58F7784BD089584B58F7DFBCF5C
:1004B0008091B0008F778093B00008958091B00054
:1004C0008F7DF9CF809190008F7780939000089571
:1004D000809190008F7DF9CF80919000877FF5CF3C
:1004E0008091A0008F778093A00008958091A00054
:1004F0008F7DF9CF8091A000877FF5CF809120017B
:100500008F77809320010895809120018F7DF9CF0E
:1005100080912001877FF5CF1F93CF93DF93282F02
:1005200030E0F901EE55FD4F8491F901E45AFD4F99
:10053000D491F901EA5EFD4FC491CC23A9F0162FA6
:1005400081110E942502EC2FF0E0EE0FFF1FE45016
:10055000FE4FA591B4918FB7F894EC91111108C09A
:10056000D095DE23DC938FBFDF91CF911F9108954B
:10057000DE2BF8CFCF93DF9390E0FC01E45AFD4FE0
:1005800024918A5E9D4FFC0184918823D1F090E0F4
:10059000880F991FFC01EE51FE4FA591B491FC010B
:1005A000E450FE4FC591D491623071F49FB7F89436
:1005B0003C91822F809583238C93E8812E2B288376
:1005C0009FBFDF91CF9108958FB7F894EC912E2BB8
:1005D0002C938FBFF6CF982FE82FF0E0EE55FD4F0C
:1005E000E491E150E23108F0B0C0F0E08827E45037
:1005F000FD4F8F4F0C94ED0D0E03130318032203D0
:100600002C03A50336033E03460350035A03640339
:1006100073037D03A503870391039B0384B580685F
:1006200084BD67BD089584B5806284BD68BD0895AA
:10063000809180008068809380007093890060932F
:10064000880008958091800080628093800070937C
:100650008B0060938A000895809180008860809369
:10066000800070938D0060938C0008958091B0009D
:1006700080688093B0006093B30008958091B000CB
:1006800080628093B0006093B400089580919000E0
:10069000806880939000709399006093980008950B
:1006A0008091900080628093900070939B00609393
:1006B0009A000895809190008860809390007093D4
:1006C0009D0060939C0008958091A00080688093B5
:1006D000A0008091A0008F7B8093A0007093A90060
:1006E0006093A80008958091A00080628093A0008C
:1006F0007093AB006093AA0008958091A000886079
:100700008093A0007093AD006093AC000895809139
:100710002001806880932001709329016093280153
:1007200008958091200180628093200170932B01B5
:1007300060932A01089580912001886080932001B0
:1007400070932D0160932C0108956038710524F495
:1007500060E0892F0C948C0261E0FBCFAF92BF92D6
:10076000CF92DF92EF92FF920F931F93CF93DF937D
:100770006C017B018B01040F151FEB015E01AE18AC
:10078000BF08C017D10759F06991D601ED91FC91CE
:100790000190F081E02DC6011995892B79F7C501EB
:1007A000DF91CF911F910F91FF90EF90DF90CF904D
:1007B000BF90AF900895FC01538D448D252F30E0FC
:1007C000842F90E0821B930B541710F0CF9608955E
:1007D00001970895FC01918D828D981761F0A28D8B
:1007E000AE0FBF2FB11D5D968C91928D9F5F9F7351
:1007F000928F90E008958FEF9FEF08952FB7F894B0
:1008000080917F0290918002A0918102B09182023A
:100810002FBF80938B0290938C02A0938D02B09394
:100820008E0283E892E00E94EA0397FF26C02FB76A
:10083000F89480917F0290918002A0918102B09102
:1008400082022FBF40918B0250918C0260918D02E9
:1008500070918E02841B950BA60BB70B40918702FB
:10086000509188026091890270918A0284179507DD
:10087000A607B707B0F28FEF9FEF0895FC01918DA7
:10088000828D981731F0828DE80FF11D858D90E0F3
:1008900008958FEF9FEF0895FC01918D228D892F90
:1008A00090E0805C9F4F821B91098F739927089578
:1008B00083E892E00E944C0421E0892B09F420E0B7
:1008C000822F0895FC01A48DA80FB92FB11DA35A42
:1008D000BF4F2C91848D90E001968F739927848F60
:1008E000A689B7892C93A089B1898C918370806483
:1008F0008C93938D848D981306C00288F389E02D24
:1009000080818F7D80830895EF92FF920F931F93D4
:10091000CF93DF93EC0181E0888F9B8D8C8D9813B2
:100920001AC0E889F989808185FF15C09FB7F894BE
:10093000EE89FF896083E889F9898081837080640A
:1009400080839FBF81E090E0DF91CF911F910F9155
:10095000FF90EF900895F62E0B8D10E00F5F1F4F64
:100960000F731127E02E8C8D8E110CC00FB607FC73
:10097000FACFE889F989808185FFF5CFCE010E9401
:100980006204F1CFEB8DEC0FFD2FF11DE35AFF4F09
:10099000F0829FB7F8940B8FEA89FB89808180628F
:1009A000CFCFCF93DF93EC01888D8823B9F0AA894C
:1009B000BB89E889F9898C9185FD03C0808186FD1A
:1009C0000DC00FB607FCF7CF8C9185FFF2CF808169
:1009D00085FFEDCFCE010E946204E9CFDF91CF9178
:1009E000089580E090E0892B29F00E94580481113D
:1009F0000E94000080E090E0892B49F080E090E0C8
:100A0000892B29F00E94000081110E94000080E0E3
:100A100090E0892B49F080E090E0892B29F00E943A
:100A2000000081110E94000080E090E0892B49F0D5
:100A300080E090E0892B29F00E94000081110C9445
:100A400000000895AF92BF92CF92DF92EF92FF9293
:100A50000F931F93CF93DF936B017A01EC01CC5876
:100A6000DD4F28813CE0389F8001399F100D112413
:100A7000A090B003B12C27FF1FC0FB011182108290
:100A800088818F5F888388819801280F311D87FDB9
:100A90003A95F6012A153B051CF488818C30C4F187
:100AA00080819181049680349C4908F473C0F601DA
:100AB00080819181049670C088819801280F311D32
:100AC00087FD3A952A153B05DCF68881A801480F79
:100AD000511D87FD5A95FA01EE0FFF1FE40FF51F18
:100AE000E05EFC4F808186FFCBCF8881F801E80F64
:100AF000F11D87FDFA95CF01EE0FFF1FE80FF91FDB
:100B0000E05EFC4F808160E08F730E948C02B8CF62
:100B1000808191812881A801420F511D27FD5A959E
:100B20009A01FA01EE0FFF1FE20FF31FE05EFC4F88
:100B300021813281820F931FF70191838083888105
:100B40009801280F311D87FD3A95F901EE0FFF1F1F
:100B5000E20FF31FE05EFC4F808186FF22C0888198
:100B6000080F111D87FD1A95F801EE0FFF1FE00F0A
:100B7000F11FE05EFC4F808161E08F73DF91CF91C8
:100B80001F910F91FF90EF90DF90CF90BF90AF90AB
:100B90000C948C0280E49CE9F701918380838FEFB1
:100BA0008883DF91CF911F910F91FF90EF90DF909D
:100BB000CF90BF90AF900895892B89F461E083E0D6
:100BC0000E948C0260E084E00E948C0261E082E07E
:100BD0000E94BA0266E970E082E00C94EB0260E0E9
:100BE00083E00E948C0261E0EECF019789F461E01E
:100BF00085E00E948C0260E086E00E948C0261E049
:100C000087E00E94BA0262E870E087E00C94EB0291
:100C100060E085E00E948C0261E0EECF60E085E05C
:100C20000E948C0260E086E00E948C0261E087E016
:100C30000E94BA0260E087E00C948C0260E083E0DE
:100C40000E948C0260E084E00E948C0261E082E0FD
:100C50000E94BA0260E082E00C948C02FC010190D8
:100C60000020E9F73197AF01481B590BBC0183E81D
:100C700092E00C94AE03CF93DF930E942E06EC011A
:100C80008AE292E00E942E068C0F9D1FDF91CF9189
:100C9000089540E052E030E020E04D5F5F4FFA0100
:100CA0003297608171816817790749F4F901EE0F75
:100CB000FF1FE20FF31FE050FE4F808108952F5F6A
:100CC0003F4F2630310549F78DE292E00E943B0606
:100CD00080E008958AE090E00E944906811118C0E2
:100CE00081E090E00E94F5058CE090E00E944906CA
:100CF000811111C081E090E00E94DC058CE090E061
:100D00000E944906882351F08AE090E00C9449063D
:100D10000E940E06E9CF0E941E06F0CF80E00895E3
:100D20008BE090E00E944906811118C090E080E0BD
:100D30000E94F5058DE090E00E944906811111C0E6
:100D400090E080E00E94DC058DE090E00E94490682
:100D5000882351F08BE090E00C9449060E940E0627
:100D6000E9CF0E941E06F0CF80E00895CF9386E180
:100D700090E00E944906C82F811104C080E590E0F0
:100D80000E94A9018C2FCF910895CF938AE190E022
:100D90000E944906C82F811104C084E690E00E9499
:100DA000A9018C2FCF9108958F929F92AF92BF92FD
:100DB000CF92DF92EF92FF920F931F93CF93DF9327
:100DC000CDB7DEB7A1970FB6F894DEBF0FBECDBF8B
:100DD0006C01990FEE08FF08F7FE47C06DE283E84B
:100DE00092E00E9484048C0122273327A9012C1948
:100DF0003D094E095F0919A2CE0181967C019AE056
:100E0000892E912CA12CB12CCA01B901A501940104
:100E10000E94B00D605DF70162937F0121153105DD
:100E20004105510589F790E080E0309719F0CF0136
:100E30000E942E06080F191F8AE292E00E942E06D9
:100E4000800F911FA1960FB6F894DEBF0FBECDBFE5
:100E5000DF91CF911F910F91FF90EF90DF90CF9096
:100E6000BF90AF909F908F900895A701960119A20F
:100E70008E010F5D1F4F8AE0C82ED12CE12CF12C82
:100E8000CA01B901A70196010E94B00D605DF80189
:100E900062938F01211531054105510589F730977E
:100EA00029F0CF010E942E068C01C6CF10E000E091
:100EB000C3CFFC0180819181009711F00C94910EB9
:100EC00008950F931F93CF93DF93EC01888199814D
:100ED000009759F02A813B812617370730F081E0CF
:100EE000DF91CF911F910F9108958B016F5F7F4F1D
:100EF0000E941A0F009759F0998388831B830A83F5
:100F00002C813D81232B59F7FC011082E8CF80E032
:100F1000E7CFEF92FF920F931F93CF93DF93EC01F4
:100F20007B01198218821B821A821D821C82FB019E
:100F300001900020E9F731978F01061B170BB801CC
:100F40000E94610728813981811113C02115310563
:100F500019F0C9010E94910E198218821D821C820B
:100F60001B821A82DF91CF911F910F91FF90EF901A
:100F700008951D830C83B701C901DF91CF911F91A3
:100F80000F91FF90EF900C940D101F920F920FB6DF
:100F90000F9211242F933F938F939F93AF93BF93FF
:100FA00080917F0290918002A0918102B091820293
:100FB00030917E0223E0230F2D3758F50196A11DB5
:100FC000B11D20937E0280937F0290938002A093B4
:100FD0008102B093820280917A0290917B02A0916B
:100FE0007C02B0917D020196A11DB11D80937A0211
:100FF00090937B02A0937C02B0937D02BF91AF914E
:101000009F918F913F912F910F900FBE0F901F9046
:10101000189526E8230F0296A11DB11DD2CF1F926D
:101020000F920FB60F9211240BB60F922F933F938E
:101030004F935F936F937F938F939F93AF93BF93E0
:10104000EF93FF9383E892E00E946204FF91EF9197
:10105000BF91AF919F918F917F916F915F914F91D0
:101060003F912F910F900BBE0F900FBE0F901F90CE
:1010700018951F920F920FB60F9211240BB60F9274
:101080002F938F939F93EF93FF93E0919302F091AF
:1010900094028081E0919902F0919A0282FD1DC034
:1010A000908180919C028F5F8F7320919D028217A7
:1010B00041F0E0919C02F0E0ED57FD4F958F809359
:1010C0009C02FF91EF919F918F912F910F900BBEFA
:1010D0000F900FBE0F901F9018958081F2CF1F9236
:1010E0000F920FB60F9211240BB60F922F933F93CE
:1010F0004F935F936F937F938F939F93AF93BF9320
:10110000EF93FF9348E251E064E271E090E080E009
:101110000E942205FF91EF91BF91AF919F918F9116
:101120007F916F915F914F913F912F910F900BBEE7
:101130000F900FBE0F901F9018951F920F920FB631
:101140000F9211240BB60F922F933F934F935F93FF
:101150006F937F938F939F93AF93BF93EF93FF937F
:1011600048EA50E064EA70E083E090E00E942205E3
:10117000FF91EF91BF91AF919F918F917F916F916F
:101180005F914F913F912F910F900BBE0F900FBE2B
:101190000F901F9018951F920F920FB60F92112467
:1011A0000BB60F922F933F934F935F936F937F9361
:1011B0008F939F93AF93BF93EF93FF9348E950E0D2
:1011C00064E970E082E090E00E942205FF91EF91D7
:1011D000BF91AF919F918F917F916F915F914F914F
:1011E0003F912F910F900BBE0F900FBE0F901F904D
:1011F00018951F920F920FB60F9211240BB60F92F3
:101200002F933F934F935F936F937F938F939F930E
:10121000AF93BF93EF93FF9348E850E064E870E02A
:1012200081E090E00E942205FF91EF91BF91AF9184
:101230009F918F917F916F915F914F913F912F91EE
:101240000F900BBE0F900FBE0F901F90189510922D
:1012500086021092850288EE93E0A0E0B0E08093D1
:10126000870290938802A0938902B0938A028CE14E
:1012700092E0909384028093830285EC90E09093B7
:10128000900280938F0284EC90E09093920280937E
:10129000910280EC90E0909394028093930281EC11
:1012A00090E0909396028093950282EC90E0909368
:1012B00098028093970286EC90E090939A02809334
:1012C000990210929C0210929D0210929E0210921E
:1012D0009F028091B003803308F0BEC091E0980F68
:1012E0009093B0038093270490E0FC01EE0FFF1F62
:1012F000E80FF91FE05EFC4F88EB9BE0928381834F
:101300001092B8031092B7036CE372E089EB93E09C
:101310000E94890781E090E09093C0038093BF030F
:101320006EE372E081EC93E00E94890782E090E036
:101330009093C8038093C70361E472E089EC93E063
:101340000E94890783E090E09093D0038093CF03BD
:1013500064E472E081ED93E00E94890784E090E00C
:101360009093D8038093D70367E472E089ED93E00C
:101370000E94890785E090E09093E0038093DF036B
:101380006AE472E081EE93E00E94890786E090E0D3
:101390009093E8038093E7036DE472E089EE93E0B5
:1013A0000E94890787E090E09093F0038093EF0319
:1013B00060E572E081EF93E00E94890788E090E0A9
:1013C0009093F8038093F70363E572E089EF93E06D
:1013D0000E94890789E090E0909300048093FF03C6
:1013E00066E572E081E094E00E9489078AE090E07F
:1013F000909308048093070468E572E089E094E024
:101400000E9489078BE090E09093100480930F0472
:101410006BE572E081E194E00E9489078CE090E046
:1014200090931804809317046EE572E089E194E0CC
:101430000E9489078DE090E09093200480931F0420
:1014400060E772E081E294E00E9489076CE272E05A
:1014500081EB93E00C9489078FEF8093270450CFA2
:10146000CF93DF9300D000D01F921F92CDB7DEB78D
:10147000789484B5826084BD84B5816084BD85B56F
:10148000826085BD85B5816085BD80916E0081607B
:1014900080936E0010928100809181008260809321
:1014A0008100809181008160809381008091800023
:1014B0008160809380008091B10084608093B1004E
:1014C0008091B00081608093B00080919100826033
:1014D0008093910080919100816080939100809130
:1014E00090008160809390008091A1008260809341
:1014F000A1008091A10081608093A1008091A00053
:1015000081608093A00080912101826080932101FD
:10151000809121018160809321018091200181606F
:101520008093200180917A00846080937A0080917A
:101530007A00826080937A0080917A008160809343
:101540007A0080917A00806880937A001092C100BE
:101550001092790210927802E0919302F091940235
:1015600082E08083E0918F02F09190021082E091FE
:101570009102F091920280E1808310929B02E091AF
:101580009702F091980286E08083E0919502F091B5
:101590009602808180618083E0919502F0919602AD
:1015A000808188608083E0919502F091960280812D
:1015B00080688083E0919502F091960280818F7D12
:1015C000808362E08BE00E94BA0262E08AE00E94BF
:1015D000BA0262E08CE00E94BA0262E08DE00E94F2
:1015E000BA0261E083E00E94BA0261E084E00E94F6
:1015F000BA0261E085E00E94BA0261E086E00E94E2
:10160000BA0261E082E00E94BA0261E087E00E94D3
:10161000BA0280912704803308F054C061E088E06A
:101620000E94BA0280912704282F30E0F901EE0FC2
:10163000FF1FE20FF31FE05EFC4F9081907C9860EB
:1016400090839EE89093280494E6909329042CE0DC
:10165000622F0E94E10D829FB001112430E020E052
:10166000AB01420F531FFA01EE0FFF1FE40FF51FEE
:10167000E05EFC4F908196FD17C02F5F3F4F2C30EE
:10168000310571F7813009F091C01092800082E03D
:10169000809381001092850010928400B19A80910D
:1016A0006F00826080936F00E09127048E2F90E09E
:1016B000FC01EE0FFF1FE80FF91FE05EFC4F808179
:1016C0008064808361E088E00E94BA0262E086E183
:1016D0000E94BA0262E08AE10E94BA023DE0232E33
:1016E000312C4CE0442E512C5BE0652E712C6AE0CD
:1016F000862E912C70E060E081EB93E00E94610700
:101700002091B1033091B20381117CC021153105C4
:1017100019F0C9010E94910E1092B2031092B10308
:101720001092B6031092B5031092B4031092B30353
:1017300081E692E00E943B068091780290917902C6
:101740000E94D40600E012E082E192E08017910747
:1017500009F462C0F801E180F28097013327F901B2
:10176000EE55FD4F8491F901E45AFD4FC490F90103
:10177000EA5EFD4FD490DD2009F45FC181110E9423
:101780002502ED2DF0E0EE0FFF1FE853FE4FA5916F
:10179000B491EC91CE2209F450C1FAE1EF16F104B4
:1017A00009F050C181E0F80180834EC1823061F4BC
:1017B00010929000809391001092950010929400E6
:1017C00088BB8093710070CF833069F41092A000C1
:1017D00082E08093A1001092A5001092A40089BB22
:1017E0008093720061CF81115FCF1092200182E05F
:1017F0008093210110922501109224018ABB8093CD
:10180000730052CF1092B6031092B5036CE272E0EF
:10181000C9010E940D108CCF8091780290917902BD
:101820000E94D40683E892E00E944C04892B09F4BC
:101830002FC16CE272E0CE0101960E9489070E94DE
:10184000FE03ED80FE8097FD1DC08A309105D1F02A
:101850008F8318869FEFE91AF90AB701CE01019626
:101860000E946107882359F329813A818D819E81E5
:10187000BE01695F7F4F820F931F0E940D10FE8291
:10188000ED82DDCFA980BA8097EBC92E93E0D92EE7
:1018900010E000E0F601868197818E159F05A9F47E
:1018A00062817381A114B10409F4D1C0611571057D
:1018B00041F4E114F10409F4D9C0F501808190E00C
:1018C000D2C0C5010E940410CEC00F5F1F4FF8E0C8
:1018D000CF0ED11C0E301105E9F687E692E00E948A
:1018E0003B0690E080E0CCC08DE090E00E9449068D
:1018F00081114CC090E080E00E94DC05809178026C
:10190000909179020E94D4064091B5035091B6039C
:101910004115510581F06091B1037091B203FB0153
:101920008081882341F083E892E00E94AE038AE23E
:1019300092E00E942E0680917802909179020E9496
:10194000D4060E94F104D6CE8CE090E00E944906B5
:1019500081111CC081E090E0CFCF8BE090E00E942D
:101960004906811113C090E080E00E94F505C6CFC2
:101970008AE090E00E944906811108C081E090E071
:10198000F4CF0E949006882309F4B8CF1092790210
:1019900010927802B3CF0E946A06F5CF0E94C50666
:1019A000F2CF0E94B606EFCF909279028092780231
:1019B000A5CF0E94C506882309F4A0CF0E941E0669
:1019C0000E940E068AE590E00E94A90170927902B9
:1019D0006092780293CF0E949006882309F48ECFFC
:1019E0000E941E060E940E068AE590E00E94A90150
:1019F000509279024092780281CF0E94B6068823E5
:101A000009F47CCF0E941E060E940E068AE590E033
:101A10000E94A90130927902209278026FCF0E9431
:101A20006A06882309F46ACF0E941E060E940E06E9
:101A30008AE590E00E94A901A9CF8AE1E816F104A5
:101A400009F0B0CEF80110820D5F1F4F7DCE6115F9
:101A5000710561F0E114F10449F0FB01808190E02F
:101A6000919581959109892B09F02FCF83E0000F83
:101A7000111F8A95E1F7F801E954FC4F80819181AB
:101A80009093790280937802CE0101960E945907C3
:101A900080917802909179020E94D406E0917802B8
:101AA000F0917902EE30F10508F028CF8827E45A4A
:101AB000F24F8F4F0C94ED0D140D740CA40CAD0C63
:101AC000B80CC10CCB0CCE0CD10CD40CD90CEB0C3B
:101AD000FD0C0F0DCF93DF9381EB93E00E9459072C
:101AE000C7E2D4E02897CE0102960E94590783E00E
:101AF000C73BD807B9F7DF91CF910895052E97FB23
:101B00001EF400940E94950D57FD07D00E94B00D61
:101B100007FC03D04EF40C94950D509540953095EC
:101B200021953F4F4F4F5F4F089590958095709549
:101B300061957F4F8F4F9F4F08950E94D20DA59FB3
:101B4000900DB49F900DA49F800D911D11240895B8
:101B5000B7FF0C949D0D0E949D0D821B930B089561
:101B6000A1E21A2EAA1BBB1BFD010DC0AA1FBB1FA1
:101B7000EE1FFF1FA217B307E407F50720F0A21B13
:101B8000B30BE40BF50B661F771F881F991F1A9480
:101B900069F760957095809590959B01AC01BD01AA
:101BA000CF010895A29FB001B39FC001A39F700D04
:101BB000811D1124911DB29F700D811D1124911D55
:101BC0000895991B79E004C0991F961708F0961B99
:101BD000881F7A95C9F780950895EE0FFF1F881F1B
:101BE0008BBF0790F691E02D19940F931F93CF931D
:101BF000DF938230910510F482E090E0E0912C04B4
:101C0000F0912D0430E020E0B0E0A0E0309799F4AE
:101C10002115310509F44AC0281B390B2430310540
:101C2000D8F58A819B816115710589F1FB01938348
:101C30008283FE0111C040815181028113814817C6
:101C40005907E0F04817590799F4109761F0129678
:101C50000C93129713961C933296CF01DF91CF917C
:101C60001F910F91089500932C0410932D04F4CF2D
:101C70002115310551F04217530738F0A901DB0156
:101C80009A01BD01DF01F801C1CFEF01F9CF9093B7
:101C90002D0480932C04CDCFFE01E20FF31F81931E
:101CA00091932250310939832883D7CF20912A0478
:101CB00030912B04232B41F4209114023091150212
:101CC00030932B0420932A042091120230911302A6
:101CD0002115310541F42DB73EB7409116025091C0
:101CE0001702241B350BE0912A04F0912B04E21714
:101CF000F307A0F42E1B3F0B2817390778F0AC012F
:101D00004E5F5F4F2417350748F04E0F5F1F50930B
:101D10002B0440932A04819391939FCFF0E0E0E05D
:101D20009CCFCF93DF930097E9F0FC0132971382A9
:101D30001282A0912C04B0912D04ED0130E020E03E
:101D40001097A1F420813181820F931F20912A04E2
:101D500030912B042817390709F061C0F0932B0448
:101D6000E0932A04DF91CF910895EA01CE17DF07AF
:101D7000E8F54A815B819E0141155105B1F7E90102
:101D8000FB83EA8349915991C40FD51FEC17FD07D6
:101D900061F4808191810296840F951FE9019983F6
:101DA0008883828193819B838A83F0E0E0E01296AE
:101DB0008D919C9113970097B9F52D913C911197B6
:101DC000CD010296820F931F20912A0430912B049B
:101DD0002817390739F6309751F510922D041092D3
:101DE0002C04B0932B04A0932A04BCCFD383C283CA
:101DF00040815181840F951FC817D90761F44E5F48
:101E00005F4F88819981480F591F518340838A8190
:101E10009B81938382832115310509F0B0CFF09324
:101E20002D04E0932C049ECFFD01DC01C0CF138272
:101E30001282D7CF4F925F926F927F928F929F9232
:101E4000AF92BF92CF92DF92EF92FF920F931F93C8
:101E5000CF93DF938C01009799F4CB01DF91CF9161
:101E60001F910F91FF90EF90DF90CF90BF90AF90B8
:101E70009F908F907F906F905F904F900C94F50D96
:101E8000FC01E60FF71F9C0122503109E217F3070E
:101E900008F4AEC0D901CD91DC911197C617D707D0
:101EA00020F1C530D10578F0CE0104978617970749
:101EB00050F0C61BD70B2297C193D1936D937C939F
:101EC000CF010E94910EC801DF91CF911F910F9118
:101ED000FF90EF90DF90CF90BF90AF909F908F904A
:101EE0007F906F905F904F9008955B01AC1ABD0A90
:101EF0004C018C0E9D1EA0912C04B0912D04512CF0
:101F0000412CF12CE12C109731F580912A0490910D
:101F10002B048815990509F05CC04616570608F091
:101F200058C08091120290911302009741F48DB72E
:101F30009EB74091160250911702841B950BE8172B
:101F4000F90708F055C0F0932B04E0932A04F90137
:101F500071836083B8CF8D919C91119712966C908C
:101F6000129713967C901397A815B90559F56C0133
:101F700042E0C40ED11CCA14DB0420F1AC014A19A2
:101F80005B09DA011296159780F0628273825183A1
:101F90004083D9016D937C93E114F10471F0D70172
:101FA0001396FC93EE9312978ECF22968C0F9D1F63
:101FB000F90191838083F301EFCFF0932D04E09337
:101FC0002C0481CF4816590608F42C017D01D30159
:101FD0009ACFCB010E94F50D7C01009749F0AE012C
:101FE000B8010E94FB0FC8010E94910E87016BCFC0
:101FF00010E000E068CFFB01DC0102C001900D920F
:1020000041505040D8F70895FB01DC018D910190BB
:1020100080190110D9F3990B0895FB01DC0101909F
:102020000D920020E1F7089511E0C5E7D1E000E04E
:1020300006C0802FFE010E94ED0D2196011DC637BE
:0C204000D10780E00807A9F7F894FFCF53
:10204C00000D00000C00000B00000A000016000040
:10205C001A0000002E048000000000008404AE036F
:10206C00DB03D1044C04EA033E040D0A006E6F201E
:10207C007375636820737769746368007300727595
:10208C00007264006C75006C640061750061640022
:10209C006166006162006D006D6F006D75006D69A9
:1020AC00007374617274006E6F20737563682063C3
:0420BC006D6400004F
:00000001FF
