:100000000C9438010C9469010C9469010C946901F9
:100010000C9469010C9469010C9469010C946901B8
:100020000C9469010C9469010C9469010C946901A8
:100030000C9469010C9469010C9469010C94690198
:100040000C9469010C945C060C9469010C94690190
:100050000C9469010C9469010C9469010C942805B5
:100060000C9469010C949C050C9472050C94690124
:100070000C9469010C9469010C9469010C94690158
:100080000C942E060C9469010C9469010C9469017E
:100090000C9469010C9469010C9469010C94690138
:1000A0000C9469010C9469010C9400060C9469018C
:1000B0000C9469010C9469010C9469010C94D205AB
:1000C0000C9469010C9469010C9469010C94690108
:1000D0000C9469010C9469010C9469010C946901F8
:1000E0000C9469010C946D020C94CE010C94C00127
:1000F0000C94C1020C94A4010C94CA010C94DE0966
:100100000C9497010C9431020C94C9010C948A064A
:100110000C9454030C945E020C94AE010C949E015A
:100120000C94A8010C94B2010C94CF020C948F0192
:100130000C94C4010C9489010C94B6010C949301A5
:100140000C9407030C949B010C94BC01000020004C
:100150002300260029002C002F003200000100009F
:1001600003010601090100002100240027002A00E4
:100170002D003000330001010000040107010A01D5
:1001800000002200250028002B002E003100340042
:1001900002010000050108010B0105050505070521
:1001A00008080808020202020A0A080804040404F3
:1001B000010101010101010103030303030303031F
:1001C000040707070C0C0C0C0C0C0C0C02020202AE
:1001D00006060606060606060B0B0B0B0B0B0B0B97
:1001E0000102102020080810204010204080020149
:1001F000020108040201010204081020408080402E
:10020000201008040201800402018040201008042C
:1002100002010804020101020408102040800102CA
:1002200004081020408000000A0B02090C0D0E0883
:1002300007030401000000000000000000000000AF
:1002400000000000000000000000000000000000AE
:10025000000012111000000000000000000000006B
:100260000000000000000000000000008A06DE0917
:1002700011241FBECFEFD1E2DEBFCDBF00E00CBF27
:1002800012E0A0E0B2E0E6ECF8E100E00BBF02C053
:1002900007900D92AC35B107D9F724E0ACE5B2E098
:1002A00001C01D92A431B207E1F711E0C7E3D1E02C
:1002B00000E006C021970109802FFE010E94330A49
:1002C000C633D10780E00807A9F70E9493070C9472
:1002D000510C0C9400008150823108F05AC0E82F74
:1002E000F0E08827E958FE4F8F4F0C94330A9701AE
:1002F0009B0189018F019301C9019E01A401A801FD
:10030000AE01B201B601BC01C001C901C401CA01FC
:10031000CE01809180008F77809380000895809136
:1003200080008F7DF9CF80918000877FF5CF84B5E5
:100330008F7784BD089584B58F7DFBCF8091B00009
:100340008F778093B00008958091B0008F7DF9CFB2
:10035000809190008F778093900008958091900015
:100360008F7DF9CF80919000877FF5CF8091A0009D
:100370008F778093A00008958091A0008F7DF9CFA2
:100380008091A000877FF5CF809120018F778093A7
:1003900020010895809120018F7DF9CF8091200167
:1003A000877FF5CF1F93CF93DF93282F30E0F9019C
:1003B000EA5DFD4F8491F901E052FE4FD491F901BD
:1003C000E656FE4FC491CC23A9F0162F81110E944E
:1003D0006B01EC2FF0E0EE0FFF1FE058FE4FA591F0
:1003E000B4918FB7F894EC91111108C0D095DE2329
:1003F000DC938FBFDF91CF911F910895DE2BF8CF53
:10040000CF93DF9390E0FC01E052FE4F249186569B
:100410009E4FFC0184918823D1F090E0880F991FB2
:10042000FC01EA59FE4FA591B491FC01E058FE4F42
:10043000C591D491623071F49FB7F8943C91822FAA
:10044000809583238C93E8812E2B28839FBFDF9197
:10045000CF9108958FB7F894EC912E2B2C938FBFEA
:10046000F6CFAF92BF92CF92DF92EF92FF920F93AF
:100470001F93CF93DF936C017B018B01040F151F3A
:10048000EB015E01AE18BF08C017D10759F06991A2
:10049000D601ED91FC910190F081E02DC6011995F6
:1004A000892B79F7C501DF91CF911F910F91FF90B3
:1004B000EF90DF90CF90BF90AF900895FC01538DE7
:1004C000448D252F30E0842F90E0821B930B54172E
:1004D00010F0CF96089501970895FC01918D828DBB
:1004E000981761F0A28DAE0FBF2FB11D5D968C9154
:1004F000928D9F5F9F73928F90E008958FEF9FEF93
:1005000008952FB7F8948091650290916602A091AA
:100510006702B09168022FBF8093710290937202BC
:10052000A0937302B093740289E692E00E946D0278
:1005300097FF26C02FB7F8948091650290916602CC
:10054000A0916702B09168022FBF40917102509153
:1005500072026091730270917402841B950BA60B5A
:10056000B70B40916D0250916E0260916F027091D5
:10057000700284179507A607B707B0F28FEF9FEFB9
:100580000895FC01918D828D981731F0828DE80FCE
:10059000F11D858D90E008958FEF9FEF0895FC0188
:1005A000918D228D892F90E0805C9F4F821B910955
:1005B0008F739927089589E692E00E94CF0221E087
:1005C000892B09F420E0822F0895FC01A48DA80F47
:1005D000B92FB11DA35ABF4F2C91848D90E0019685
:1005E0008F739927848FA689B7892C93A089B189A5
:1005F0008C91837080648C93938D848D981306C046
:100600000288F389E02D80818F7D80830895EF92A9
:10061000FF920F931F93CF93DF93EC0181E0888FBC
:100620009B8D8C8D98131AC0E889F989808185FF8C
:1006300015C09FB7F894EE89FF896083E889F9892E
:1006400080818370806480839FBF81E090E0DF9130
:10065000CF911F910F91FF90EF900895F62E0B8D83
:1006600010E00F5F1F4F0F731127E02E8C8D8E113E
:100670000CC00FB607FCFACFE889F989808185FFA5
:10068000F5CFCE010E94E502F1CFEB8DEC0FFD2FEF
:10069000F11DE35AFF4FF0829FB7F8940B8FEA8960
:1006A000FB8980818062CFCFCF93DF93EC01888D6F
:1006B0008823B9F0AA89BB89E889F9898C9185FDDD
:1006C00003C0808186FD0DC00FB607FCF7CF8C916B
:1006D00085FFF2CF808185FFEDCFCE010E94E5023C
:1006E000E9CFDF91CF91089580E090E0892B29F048
:1006F0000E94DB0281110E94000080E090E0892BC3
:1007000049F080E090E0892B29F00E9400008111DF
:100710000E94000080E090E0892B49F080E090E0AA
:10072000892B29F00E94000081110E94000080E0C6
:1007300090E0892B49F080E090E0892B29F00E941D
:10074000000081110C9400000895AF92BF92CF92E7
:10075000DF92EF92FF920F931F93CF93DF936B0182
:100760007A01EC01C45ADD4F28813CE0389F8001BA
:10077000399F100D1124A0909603B12C27FF1FC0A4
:10078000FB011182108288818F5F888388819801A4
:10079000280F311D87FD3A95F6012A153B051CF4FB
:1007A00088818C30C4F180819181049680349C4989
:1007B00008F473C0F60180819181049670C088812D
:1007C0009801280F311D87FD3A952A153B05DCF667
:1007D0008881A801480F511D87FD5A95FA01EE0F37
:1007E000FF1FE40FF51FEA5FFC4F808186FFCBCF30
:1007F0008881F801E80FF11D87FDFA95CF01EE0F12
:10080000FF1FE80FF91FEA5FFC4F808160E08F73E4
:100810000E94D201B8CF808191812881A801420F26
:10082000511D27FD5A959A01FA01EE0FFF1FE20FA5
:10083000F31FEA5FFC4F21813281820F931FF70182
:100840009183808388819801280F311D87FD3A9517
:10085000F901EE0FFF1FE20FF31FEA5FFC4F8081EB
:1008600086FF22C08881080F111D87FD1A95F801A7
:10087000EE0FFF1FE00FF11FEA5FFC4F808161E088
:100880008F73DF91CF911F910F91FF90EF90DF90C9
:10089000CF90BF90AF900C94D20180E49CE9F70117
:1008A000918380838FEF8883DF91CF911F910F9188
:1008B000FF90EF90DF90CF90BF90AF900895CF93CF
:1008C000DF93EC0188819981009711F00E94D70A8B
:1008D000198218821D821C821B821A82DF91CF919D
:1008E0000895FC0180819181009711F00C94D70A42
:1008F00008950F931F93CF93DF93EC018881998123
:10090000009759F02A813B812617370730F081E0A4
:10091000DF91CF911F910F9108958B016F5F7F4FF2
:100920000E94600B009759F0998388831B830A8388
:100930002C813D81232B59F7FC011082E8CF80E008
:10094000E7CFEF92FF920F931F93CF93DF93411561
:100950005105B1F07B01EC010C811D81040F151FC5
:10096000B8010E947904882361F0288139818C8143
:100970009D81B701820F931F0E944A0C1D830C8337
:1009800081E0DF91CF911F910F91FF90EF9008953B
:10099000EF92FF920F931F93CF93DF9300D000D07D
:1009A0001F921F92CDB7DEB77C01CB014AE08E01CA
:1009B0000F5F1F4FB8010E94F209F801019000205B
:1009C000E9F73197AF01401B510BB801C7010E94F5
:1009D000A10428960FB6F894DEBF0FBECDBFDF91FD
:1009E000CF911F910F91FF90EF900895EF92FF929A
:1009F0000F931F93CF93DF93EC017B018A01BA0120
:100A00000E94790481110BC0CE010E945F04CE01C7
:100A1000DF91CF911F910F91FF90EF9008951D836B
:100A20000C83B701888199810E944A0CF0CFFC01A8
:100A3000118210821382128215821482FB010190AE
:100A40000020E9F73197AF01461B570B0C94F604D1
:100A50001F920F920FB60F9211242F933F938F93F3
:100A60009F93AF93BF938091650290916602A0918E
:100A70006702B09168023091640223E0230F2D37A2
:100A800058F50196A11DB11D209364028093650263
:100A900090936602A0936702B0936802809160020F
:100AA00090916102A0916202B09163020196A11D32
:100AB000B11D8093600290936102A0936202B09393
:100AC0006302BF91AF919F918F913F912F910F90B2
:100AD0000FBE0F901F90189526E8230F0296A11DB8
:100AE000B11DD2CF1F920F920FB60F9211240BB6E9
:100AF0000F922F933F934F935F936F937F938F93B7
:100B00009F93AF93BF93EF93FF9389E692E00E9488
:100B1000E502FF91EF91BF91AF919F918F917F91EE
:100B20006F915F914F913F912F910F900BBE0F905E
:100B30000FBE0F901F9018951F920F920FB60F9235
:100B400011240BB60F922F938F939F93EF93FF93E4
:100B5000E0917902F0917A028081E0917F02F09138
:100B6000800282FD1DC09081809182028F5F8F7311
:100B700020918302821741F0E0918202F0E0E75970
:100B8000FD4F958F80938202FF91EF919F918F91FE
:100B90002F910F900BBE0F900FBE0F901F901895C6
:100BA0008081F2CF1F920F920FB60F9211240BB6D5
:100BB0000F922F933F934F935F936F937F938F93F6
:100BC0009F93AF93BF93EF93FF9348E251E064E2AA
:100BD00071E090E080E00E94A503FF91EF91BF914A
:100BE000AF919F918F917F916F915F914F913F91C5
:100BF0002F910F900BBE0F900FBE0F901F90189566
:100C00001F920F920FB60F9211240BB60F922F93D3
:100C10003F934F935F936F937F938F939F93AF9384
:100C2000BF93EF93FF9348EA50E064EA70E083E0FB
:100C300090E00E94A503FF91EF91BF91AF919F912A
:100C40008F917F916F915F914F913F912F910F9075
:100C50000BBE0F900FBE0F901F9018951F920F9212
:100C60000FB60F9211240BB60F922F933F934F9311
:100C70005F936F937F938F939F93AF93BF93EF9304
:100C8000FF9348E950E064E970E082E090E00E9460
:100C9000A503FF91EF91BF91AF919F918F917F91AC
:100CA0006F915F914F913F912F910F900BBE0F90DD
:100CB0000FBE0F901F9018951F920F920FB60F92B4
:100CC00011240BB60F922F933F934F935F936F9323
:100CD0007F938F939F93AF93BF93EF93FF9348E8D6
:100CE00050E064E870E081E090E00E94A503FF918D
:100CF000EF91BF91AF919F918F917F916F915F9194
:100D00004F913F912F910F900BBE0F900FBE0F9000
:100D10001F90189510926C0210926B0288EE93E06F
:100D2000A0E0B0E080936D0290936E02A0936F02FA
:100D3000B09370028CE192E090936A028093690212
:100D400085EC90E0909376028093750284EC90E0BD
:100D5000909378028093770280EC90E090937A02EF
:100D60008093790281EC90E090937C0280937B02E7
:100D700082EC90E090937E0280937D0286EC90E07E
:100D80009093800280937F021092820210928302DD
:100D9000109284021092850280919603803308F0AD
:100DA000BEC091E0980F9093960380930D0490E05D
:100DB000FC01EE0FFF1FE80FF91FEA5FFC4F88EB05
:100DC0009BE09283818310929E0310929D036AE2BE
:100DD00072E08FE993E00E94170581E090E0909324
:100DE000A6038093A5036CE272E087EA93E00E9479
:100DF000170582E090E09093AE038093AD036FE21D
:100E000072E08FEA93E00E94170583E090E09093F0
:100E1000B6038093B50362E372E087EB93E00E9430
:100E2000170584E090E09093BE038093BD0365E3D3
:100E300072E08FEB93E00E94170585E090E09093BD
:100E4000C6038093C50368E372E087EC93E00E94D9
:100E5000170586E090E09093CE038093CD036BE37B
:100E600072E08FEC93E00E94170587E090E090938A
:100E7000D6038093D5036EE372E087ED93E00E9482
:100E8000170588E090E09093DE038093DD0361E432
:100E900072E08FED93E00E94170589E090E0909357
:100EA000E6038093E50364E472E087EE93E00E943A
:100EB00017058AE090E09093EE038093ED0366E4DB
:100EC00072E08FEE93E00E9417058BE090E0909324
:100ED000F6038093F50369E472E087EF93E00E94E4
:100EE00017058CE090E09093FE038093FD036CE483
:100EF00072E08FEF93E00E9417058DE090E09093F1
:100F00000604809305046FE472E087E094E00E9499
:100F100017056AE572E087E993E00C9417058FEFF7
:100F200080930D0450CFCF93DF9300D000D01F9259
:100F30001F92CDB7DEB7789484B5826084BD84B546
:100F4000816084BD85B5826085BD85B5816085BDC4
:100F500080916E00816080936E001092810080917C
:100F60008100826080938100809181008160809304
:100F70008100809180008160809380008091B10029
:100F800084608093B1008091B00081608093B00054
:100F900080919100826080939100809191008160A6
:100FA0008093910080919000816080939000809167
:100FB000A10082608093A1008091A1008160809354
:100FC000A1008091A00081608093A0008091210108
:100FD00082608093210180912101816080932101B1
:100FE0008091200181608093200180917A0084604B
:100FF00080937A0080917A00826080937A00809159
:101000007A00816080937A0080917A008068809372
:101010007A001092C100E0917902F0917A0282E0A8
:101020008083E0917502F09176021082E091770260
:10103000F091780280E1808310928102E0917D023C
:10104000F0917E0286E08083E0917B02F0917C0249
:10105000808180618083E0917B02F0917C028081BD
:1010600088608083E0917B02F0917C0280818068BF
:101070008083E0917B02F0917C0280818F7D808370
:1010800062E08BE00E94000262E08AE00E940002BF
:1010900062E08CE00E94000262E08DE00E940002AB
:1010A00061E083E00E94000261E084E00E940002AF
:1010B00061E085E00E94000261E086E00E9400029B
:1010C00061E082E00E94000261E087E00E9400028D
:1010D00080910D04803308F054C061E088E00E94E4
:1010E000000280910D04282F30E0F901EE0FFF1F60
:1010F000E20FF31FEA5FFC4F9081907C9860908331
:101100009EE890930E0494E690930F042CE0622FD7
:101110000E94270A829FB001112430E020E0AB0139
:10112000420F531FFA01EE0FFF1FE40FF51FEA5F96
:10113000FC4F908196FD17C02F5F3F4F2C3031053B
:1011400071F7813009F0C0C01092800082E0809376
:1011500081001092850010928400B19A80916F00F6
:10116000826080936F00E0910D048E2F90E0FC016F
:10117000EE0FFF1FE80FF91FEA5FFC4F80818064CC
:10118000808361E088E00E94000262E086E10E94C4
:10119000000262E08AE10E940002CC24C39450E085
:1011A00040E06AE572E087E993E00E94F60400E01F
:1011B00012E082E00231180709F4B7C0F801E180BB
:1011C000F28097013327F901EA5DFD4F8491F9011F
:1011D000E052FE4FD490F901E656FE4FB490BB208A
:1011E00009F4E4C081110E946B01EB2DF0E0EE0FD9
:1011F000FF1FE45BFE4FA591B491EC91DE2209F450
:10120000D5C08AE1E816F10409F0D5C0F801C08222
:10121000F801A080B12C1A8219821C821B821E82C6
:101220001D8260919703709198036115710541F0DB
:1012300040919B0350919C03CE0101960E94F604BD
:10124000B701CE0101960E94C804811104C0CE01ED
:1012500001960E945F0442E050E062E572E0CE0138
:1012600001960E94A104811104C0CE0101960E9442
:101270005F04B501CE0101960E94C804811104C02B
:10128000CE0101960E945F0442E050E065E572E005
:10129000CE0101960E94A104811104C0CE010196E5
:1012A0000E945F0469817A8161157105C9F14D81E0
:1012B0005E8187E993E00E94F604CE0101960E94C8
:1012C00071040D5F1F4F75CF823061F41092900052
:1012D00080939100109295001092940088BB8093A7
:1012E000710041CF833069F41092A00082E08093B6
:1012F000A1001092A5001092A40089BB80937200F7
:1013000032CF811130CF1092200182E080932101F1
:1013100010922501109224018ABB8093730023CF81
:1013200087E993E00E945F04C8CF89E692E00E94BB
:10133000CF02892BE9F06AE572E0CE0101960E94A6
:1013400017050E94810297FD0FC08A30910561F058
:101350008F83188641E050E0BE01695F7F4FCE0168
:1013600001960E94A104EDCFCE0101960E94710466
:1013700040919B0350919C0341155105A1F0609150
:10138000970370919803FB018081882361F089E6BF
:1013900092E00E94310242E050E068E572E089E6A6
:1013A00092E00E9431020E947403F9CEFAE1EF1636
:1013B000F10409F02BCFF80110822ACFCF93DF93ED
:1013C00087E993E00E947104CDE0D4E02897CE0134
:1013D00002960E94710483E0CD39D807B9F7DF91F6
:1013E000CF910895BB274A3031F4992322F4BDE20E
:1013F000909581959F4F0C94FE09BB27FB015527C3
:10140000AA27880F991FAA1FA41710F0A41B839561
:101410005051B9F7A05DAA3308F0A95DA1930097D8
:1014200079F7B111B1931192CB010C94170ADC0139
:10143000FC01672F71917723E1F7329704C07C910B
:101440006D9370836291AE17BF07C8F30895991B1F
:1014500079E004C0991F961708F0961B881F7A95AB
:10146000C9F780950895EE0FFF1F881F8BBF079067
:10147000F691E02D19940F931F93CF93DF93823051
:10148000910510F482E090E0E0911204F0911304D1
:1014900030E020E0B0E0A0E0309799F4211531056C
:1014A00009F44AC0281B390B24303105D8F58A814C
:1014B0009B816115710589F1FB0193838283FE0194
:1014C00011C0408151810281138148175907E0F012
:1014D0004817590799F4109761F012960C931297D8
:1014E00013961C933296CF01DF91CF911F910F91EC
:1014F00008950093120410931304F4CF21153105BD
:1015000051F04217530738F0A901DB019A01BD01E0
:10151000DF01F801C1CFEF01F9CF9093130480935D
:101520001204CDCFFE01E20FF31F8193919322505D
:10153000310939832883D7CF2091100430911104C9
:10154000232B41F4209114023091150230931104A1
:1015500020931004209112023091130221153105BD
:1015600041F42DB73EB74091160250911702241B4B
:10157000350BE0911004F0911104E217F307A0F489
:101580002E1B3F0B2817390778F0AC014E5F5F4FD9
:101590002417350748F04E0F5F1F509311044093F6
:1015A0001004819391939FCFF0E0E0E09CCFCF9324
:1015B000DF930097E9F0FC01329713821282A09129
:1015C0001204B0911304ED0130E020E01097A1F473
:1015D00020813181820F931F2091100430911104DA
:1015E0002817390709F061C0F0931104E093100443
:1015F000DF91CF910895EA01CE17DF07E8F54A8120
:101600005B819E0141155105B1F7E901FB83EA8336
:1016100049915991C40FD51FEC17FD0761F48081E2
:1016200091810296840F951FE901998388838281B5
:1016300093819B838A83F0E0E0E012968D919C91E8
:1016400013970097B9F52D913C911197CD01029612
:10165000820F931F2091100430911104281739072D
:1016600039F6309751F51092130410921204B0938A
:101670001104A0931004BCCFD383C2834081518155
:10168000840F951FC817D90761F44E5F5F4F88819B
:101690009981480F591F518340838A819B8193838D
:1016A00082832115310509F0B0CFF0931304E09344
:1016B00012049ECFFD01DC01C0CF13821282D7CF6E
:1016C0004F925F926F927F928F929F92AF92BF9252
:1016D000CF92DF92EF92FF920F931F93CF93DF93FE
:1016E0008C01009799F4CB01DF91CF911F910F915D
:1016F000FF90EF90DF90CF90BF90AF909F908F9032
:101700007F906F905F904F900C943B0AFC01E60F26
:10171000F71F9C0122503109E217F30708F4AEC00D
:10172000D901CD91DC911197C617D70720F1C530AB
:10173000D10578F0CE0104978617970750F0C61BA5
:10174000D70B2297C193D1936D937C93CF010E94C5
:10175000D70AC801DF91CF911F910F91FF90EF90B1
:10176000DF90CF90BF90AF909F908F907F906F90C1
:101770005F904F9008955B01AC1ABD0A4C018C0E2E
:101780009D1EA0911204B0911304512C412CF12CF8
:10179000E12C109731F58091100490911104881577
:1017A000990509F05CC04616570608F058C08091AC
:1017B000120290911302009741F48DB79EB74091A9
:1017C000160250911702841B950BE817F90708F0D1
:1017D00055C0F0931104E0931004F9017183608304
:1017E000B8CF8D919C91119712966C901297139689
:1017F0007C901397A815B90559F56C0142E0C40E09
:10180000D11CCA14DB0420F1AC014A195B09DA01CE
:101810001296159780F06282738251834083D901BA
:101820006D937C93E114F10471F0D7011396FC934E
:10183000EE9312978ECF22968C0F9D1FF901918304
:101840008083F301EFCFF0931304E093120481CF70
:101850004816590608F42C017D01D3019ACFCB011B
:101860000E943B0A7C01009749F0AE01B8010E943A
:10187000410CC8010E94D70A87016BCF10E000E03D
:1018800068CFFB01DC0102C001900D924150504035
:10189000D8F70895FB01DC0101900D920020E1F7DB
:1018A000089511E0C7E3D1E000E006C0802FFE01FB
:1018B0000E94330A2196011DC833D10780E0080732
:0618C000A9F7F894FFCF28
:1018C600000D00000C00000B00000A0000160000CE
:1018D6001A00000014048000000000000703310213
:1018E6005E025403CF026D02C1027300727500726C
:1018F60064006C75006C640061750061640061666B
:10190600006162006D006D6F006D75006D69006DA0
:0C19160064003A20002020000D0A0000B0
:00000001FF
