:100000000C9438010C9469010C9469010C946901F9
:100010000C9469010C9469010C9469010C946901B8
:100020000C9469010C9469010C9469010C946901A8
:100030000C9469010C9469010C9469010C94690198
:100040000C9469010C947D060C9469010C9469016F
:100050000C9469010C9469010C9469010C94490594
:100060000C9469010C94BD050C9493050C946901E2
:100070000C9469010C9469010C9469010C94690158
:100080000C944F060C9469010C9469010C9469015D
:100090000C9469010C9469010C9469010C94690138
:1000A0000C9469010C9469010C9421060C9469016B
:1000B0000C9469010C9469010C9469010C94F3058A
:1000C0000C9469010C9469010C9469010C94690108
:1000D0000C9469010C9469010C9469010C946901F8
:1000E0000C9469010C9454030C9493010C948F01AB
:1000F0000C945E020C94C9010C94CA010C949E01EC
:100100000C94AB060C94160A0C94CE010C94C4010A
:100110000C94CF020C94B6010C946D020C94A801BF
:100120000C94A4010C94BC010C949B010C94C00190
:100130000C9407030C9497010C94C1020C94B20127
:100140000C9489010C94AE010C9431020000200043
:100150002300260029002C002F003200000100009F
:1001600003010601090100002100240027002A00E4
:100170002D003000330001010000040107010A01D5
:1001800000002200250028002B002E003100340042
:1001900002010000050108010B0105050505070521
:1001A00008080808020202020A0A080804040404F3
:1001B000010101010101010103030303030303031F
:1001C000040707070C0C0C0C0C0C0C0C02020202AE
:1001D00006060606060606060B0B0B0B0B0B0B0B97
:1001E0000102102020080810204010204080020149
:1001F000020108040201010204081020408080402E
:10020000201008040201800402018040201008042C
:1002100002010804020101020408102040800102CA
:1002200004081020408000000A0B02090C0D0E0883
:1002300007030401000000000000000000000000AF
:1002400000000000000000000000000000000000AE
:10025000000012111000000000000000000000006B
:10026000000000000000000000000000AB06160ABD
:1002700011241FBECFEFD1E2DEBFCDBF00E00CBF27
:1002800012E0A0E0B2E0E8E4F9E100E00BBF02C058
:1002900007900D92A236B107D9F724E0A2E6B2E0AA
:1002A00001C01D92AA31B207E1F711E0C7E3D1E026
:1002B00000E006C021970109802FFE010E946B0A11
:1002C000C633D10780E00807A9F70E94B4070C9451
:1002D000920C0C9400008150823108F05AC0E82F33
:1002E000F0E08827E958FE4F8F4F0C946B0A970176
:1002F0009B0189018F019301C9019E01A401A801FD
:10030000AE01B201B601BC01C001C901C401CA01FC
:10031000CE01809180008F77809380000895809136
:1003200080008F7DF9CF80918000877FF5CF84B5E5
:100330008F7784BD089584B58F7DFBCF8091B00009
:100340008F778093B00008958091B0008F7DF9CFB2
:10035000809190008F778093900008958091900015
:100360008F7DF9CF80919000877FF5CF8091A0009D
:100370008F778093A00008958091A0008F7DF9CFA2
:100380008091A000877FF5CF809120018F778093A7
:1003900020010895809120018F7DF9CF8091200167
:1003A000877FF5CF1F93CF93DF93282F30E0F9019C
:1003B000EA5DFD4F8491F901E052FE4FD491F901BD
:1003C000E656FE4FC491CC23A9F0162F81110E944E
:1003D0006B01EC2FF0E0EE0FFF1FE058FE4FA591F0
:1003E000B4918FB7F894EC91111108C0D095DE2329
:1003F000DC938FBFDF91CF911F910895DE2BF8CF53
:10040000CF93DF9390E0FC01E052FE4F249186569B
:100410009E4FFC0184918823D1F090E0880F991FB2
:10042000FC01EA59FE4FA591B491FC01E058FE4F42
:10043000C591D491623071F49FB7F8943C91822FAA
:10044000809583238C93E8812E2B28839FBFDF9197
:10045000CF9108958FB7F894EC912E2B2C938FBFEA
:10046000F6CFAF92BF92CF92DF92EF92FF920F93AF
:100470001F93CF93DF936C017B018B01040F151F3A
:10048000EB015E01AE18BF08C017D10759F06991A2
:10049000D601ED91FC910190F081E02DC6011995F6
:1004A000892B79F7C501DF91CF911F910F91FF90B3
:1004B000EF90DF90CF90BF90AF900895FC01538DE7
:1004C000448D252F30E0842F90E0821B930B54172E
:1004D00010F0CF96089501970895FC01918D828DBB
:1004E000981761F0A28DAE0FBF2FB11D5D968C9154
:1004F000928D9F5F9F73928F90E008958FEF9FEF93
:1005000008952FB7F89480916B0290916C02A0919E
:100510006D02B0916E022FBF8093770290937802A4
:10052000A0937902B0937A028FE692E00E946D0266
:1005300097FF26C02FB7F89480916B0290916C02C0
:10054000A0916D02B0916E022FBF40917702509141
:1005500078026091790270917A02841B950BA60B48
:10056000B70B4091730250917402609175027091C3
:10057000760284179507A607B707B0F28FEF9FEFB3
:100580000895FC01918D828D981731F0828DE80FCE
:10059000F11D858D90E008958FEF9FEF0895FC0188
:1005A000918D228D892F90E0805C9F4F821B910955
:1005B0008F73992708958FE692E00E94CF0221E081
:1005C000892B09F420E0822F0895FC01A48DA80F47
:1005D000B92FB11DA35ABF4F2C91848D90E0019685
:1005E0008F739927848FA689B7892C93A089B189A5
:1005F0008C91837080648C93938D848D981306C046
:100600000288F389E02D80818F7D80830895EF92A9
:10061000FF920F931F93CF93DF93EC0181E0888FBC
:100620009B8D8C8D98131AC0E889F989808185FF8C
:1006300015C09FB7F894EE89FF896083E889F9892E
:1006400080818370806480839FBF81E090E0DF9130
:10065000CF911F910F91FF90EF900895F62E0B8D83
:1006600010E00F5F1F4F0F731127E02E8C8D8E113E
:100670000CC00FB607FCFACFE889F989808185FFA5
:10068000F5CFCE010E94E502F1CFEB8DEC0FFD2FEF
:10069000F11DE35AFF4FF0829FB7F8940B8FEA8960
:1006A000FB8980818062CFCFCF93DF93EC01888D6F
:1006B0008823B9F0AA89BB89E889F9898C9185FDDD
:1006C00003C0808186FD0DC00FB607FCF7CF8C916B
:1006D00085FFF2CF808185FFEDCFCE010E94E5023C
:1006E000E9CFDF91CF91089580E090E0892B29F048
:1006F0000E94DB0281110E94000080E090E0892BC3
:1007000049F080E090E0892B29F00E9400008111DF
:100710000E94000080E090E0892B49F080E090E0AA
:10072000892B29F00E94000081110E94000080E0C6
:1007300090E0892B49F080E090E0892B29F00E941D
:10074000000081110C9400000895AF92BF92CF92E7
:10075000DF92EF92FF920F931F93CF93DF936B0182
:100760007A01EC01CE59DD4F28813CE0389F8001B1
:10077000399F100D1124A0909C03B12C27FF1FC09E
:10078000FB011182108288818F5F888388819801A4
:10079000280F311D87FD3A95F6012A153B051CF4FB
:1007A00088818C30C4F180819181049680349C4989
:1007B00008F473C0F60180819181049670C088812D
:1007C0009801280F311D87FD3A952A153B05DCF667
:1007D0008881A801480F511D87FD5A95FA01EE0F37
:1007E000FF1FE40FF51FE45FFC4F808186FFCBCF36
:1007F0008881F801E80FF11D87FDFA95CF01EE0F12
:10080000FF1FE80FF91FE45FFC4F808160E08F73EA
:100810000E94D201B8CF808191812881A801420F26
:10082000511D27FD5A959A01FA01EE0FFF1FE20FA5
:10083000F31FE45FFC4F21813281820F931FF70188
:100840009183808388819801280F311D87FD3A9517
:10085000F901EE0FFF1FE20FF31FE45FFC4F8081F1
:1008600086FF22C08881080F111D87FD1A95F801A7
:10087000EE0FFF1FE00FF11FE45FFC4F808161E08E
:100880008F73DF91CF911F910F91FF90EF90DF90C9
:10089000CF90BF90AF900C94D20180E49CE9F70117
:1008A000918380838FEF8883DF91CF911F910F9188
:1008B000FF90EF90DF90CF90BF90AF900895EF92B0
:1008C000FF920F931F93CF93DF938C0193EAE92E4E
:1008D00093E0F92ED0E0C0E0F80124813581F701E2
:1008E0008681978128173907A1F4F80180819181C9
:1008F000F701628173810097A1F06115710531F4F0
:10090000232BE1F0FC01808190E016C00E94820C54
:1009100013C02196F8E0EF0EF11CCE30D105E1F6C0
:1009200016C06115710551F0232B41F0FB01808148
:1009300090E0919581959109892B59F783E0CC0F2F
:10094000DD1F8A95E1F7CD55DC4F88819981DF91D4
:10095000CF911F910F91FF90EF900895CF93DF9368
:10096000EC0188819981009711F00E940F0B198288
:1009700018821D821C821B821A82DF91CF910895FA
:10098000FC0180819181009711F00C940F0B089568
:100990000F931F93CF93DF93EC0188819981009788
:1009A00059F02A813B812617370730F081E0DF912B
:1009B000CF911F910F9108958B016F5F7F4F0E9420
:1009C000980B009759F0998388831B830A832C81A5
:1009D0003D81232B59F7FC011082E8CF80E0E7CF5F
:1009E000EF92FF920F931F93CF93DF934115510521
:1009F000B1F07B01EC010C811D81040F151FB801C2
:100A00000E94C804882361F0288139818C819D81EE
:100A1000B701820F931F0E948B0C1D830C8381E012
:100A2000DF91CF911F910F91FF90EF900895EF927A
:100A3000FF920F931F93CF93DF93EC017B018A0109
:100A4000BA010E94C80481110BC0CE010E94AE04FD
:100A5000CE01DF91CF911F910F91FF90EF900895FC
:100A60001D830C83B701888199810E948B0CF0CF84
:100A7000FC01118210821382128215821482FB0102
:100A800001900020E9F73197AF01461B570B0C94FA
:100A900017051F920F920FB60F9211242F933F93B9
:100AA0008F939F93AF93BF9380916B0290916C0251
:100AB000A0916D02B0916E0230916A0223E0230F83
:100AC0002D3758F50196A11DB11D20936A02809320
:100AD0006B0290936C02A0936D02B0936E028091B2
:100AE000660290916702A0916802B0916902019636
:100AF000A11DB11D8093660290936702A0936802C6
:100B0000B0936902BF91AF919F918F913F912F91C7
:100B10000F900FBE0F901F90189526E8230F029696
:100B2000A11DB11DD2CF1F920F920FB60F921124AB
:100B30000BB60F922F933F934F935F936F937F93D7
:100B40008F939F93AF93BF93EF93FF938FE692E0C2
:100B50000E94E502FF91EF91BF91AF919F918F911C
:100B60007F916F915F914F913F912F910F900BBEAD
:100B70000F900FBE0F901F9018951F920F920FB6F7
:100B80000F9211240BB60F922F938F939F93EF9395
:100B9000FF93E0917F02F09180028081E0918502D5
:100BA000F091860282FD1DC09081809188028F5F46
:100BB0008F7320918902821741F0E0918802F0E062
:100BC000E159FD4F958F80938802FF91EF919F919E
:100BD0008F912F910F900BBE0F900FBE0F901F9013
:100BE00018958081F2CF1F920F920FB60F921124A9
:100BF0000BB60F922F933F934F935F936F937F9317
:100C00008F939F93AF93BF93EF93FF9348E251E08D
:100C100064E271E090E080E00E94A503FF91EF9113
:100C2000BF91AF919F918F917F916F915F914F9104
:100C30003F912F910F900BBE0F900FBE0F901F9002
:100C400018951F920F920FB60F9211240BB60F92A8
:100C50002F933F934F935F936F937F938F939F93C4
:100C6000AF93BF93EF93FF9348EA50E064EA70E0DC
:100C700083E090E00E94A503FF91EF91BF91AF91B7
:100C80009F918F917F916F915F914F913F912F91A4
:100C90000F900BBE0F900FBE0F901F9018951F92D4
:100CA0000F920FB60F9211240BB60F922F933F9312
:100CB0004F935F936F937F938F939F93AF93BF9364
:100CC000EF93FF9348E950E064E970E082E090E040
:100CD0000E94A503FF91EF91BF91AF919F918F91DA
:100CE0007F916F915F914F913F912F910F900BBE2C
:100CF0000F900FBE0F901F9018951F920F920FB676
:100D00000F9211240BB60F922F933F934F935F9343
:100D10006F937F938F939F93AF93BF93EF93FF93C3
:100D200048E850E064E870E081E090E00E94A503AC
:100D3000FF91EF91BF91AF919F918F917F916F91B3
:100D40005F914F913F912F910F900BBE0F900FBE6F
:100D50000F901F901895109272021092710288EEF7
:100D600093E0A0E0B0E08093730290937402A093AC
:100D70007502B09376028CE192E0909370028093BA
:100D80006F0285EC90E090937C0280937B0284EC70
:100D900090E090937E0280937D0280EC90E09093AF
:100DA000800280937F0281EC90E090938202809396
:100DB000810282EC90E0909384028093830286EC1F
:100DC00090E09093860280938502109288021092A0
:100DD000890210928A0210928B0280919C038033C8
:100DE00008F0BEC091E0980F90939C038093130489
:100DF00090E0FC01EE0FFF1FE80FF91FE45FFC4FCE
:100E000088EB9BE0928381831092A4031092A3034A
:100E10006AE272E085EA93E00E94380581E090E0A2
:100E20009093AC038093AB036CE272E08DEA93E0A5
:100E30000E94380582E090E09093B4038093B3035E
:100E40006FE272E085EB93E00E94380583E090E06A
:100E50009093BC038093BB0362E372E08DEB93E05D
:100E60000E94380584E090E09093C4038093C3030C
:100E700065E372E085EC93E00E94380585E090E040
:100E80009093CC038093CB0368E372E08DEC93E006
:100E90000E94380586E090E09093D4038093D303BA
:100EA0006BE372E085ED93E00E94380587E090E007
:100EB0009093DC038093DB036EE372E08DED93E0AF
:100EC0000E94380588E090E09093E4038093E30368
:100ED00061E472E085EE93E00E94380589E090E0DD
:100EE0009093EC038093EB0364E472E08DEE93E067
:100EF0000E9438058AE090E09093F4038093F30316
:100F000066E472E085EF93E00E9438058BE090E0A4
:100F10009093FC038093FB0369E472E08DEF93E010
:100F20000E9438058CE090E09093040480930304C1
:100F30006CE472E085E094E00E9438058DE090E07A
:100F400090930C0480930B046FE472E08DE094E0C6
:100F50000E94380560E672E08DE993E00C94380554
:100F60008FEF8093130450CFCF93DF93CDB7DEB7CD
:100F700064970FB6F894DEBF0FBECDBF789484B5EA
:100F8000826084BD84B5816084BD85B5826085BD85
:100F900085B5816085BD80916E00816080936E0013
:100FA0001092810080918100826080938100809105
:100FB00081008160809381008091800081608093B6
:100FC00080008091B10084608093B1008091B00076
:100FD00081608093B0008091910082608093910045
:100FE0008091910081608093910080919000816058
:100FF000809390008091A10082608093A1008091F5
:10100000A10081608093A1008091A0008160809305
:10101000A0008091210182608093210180912101B3
:101020008160809321018091200181608093200163
:1010300080917A00846080937A0080917A00826047
:1010400080937A0080917A00816080937A00809109
:101050007A00806880937A001092C100E0917F024C
:10106000F091800282E08083E0917B02F0917C022B
:101070001082E0917D02F0917E0280E180831092E7
:101080008702E0918302F091840286E08083E09100
:101090008102F0918202808180618083E0918102EF
:1010A000F0918202808188608083E0918102F091DA
:1010B0008202808180688083E0918102F0918202C7
:1010C00080818F7D808362E08BE00E94000262E07D
:1010D0008AE00E94000262E08CE00E94000262E06E
:1010E0008DE00E94000261E083E00E94000261E066
:1010F00084E00E94000261E085E00E94000261E05D
:1011000086E00E94000261E082E00E94000261E04D
:1011100087E00E94000280911304803308F054C0DD
:1011200061E088E00E94000280911304282F30E0E3
:10113000F901EE0FFF1FE20FF31FE45FFC4F9081F8
:10114000907C986090839EE89093140494E690932A
:1011500015042CE0622F0E945F0A829FB0011124C7
:1011600030E020E0AB01420F531FFA01EE0FFF1FEA
:10117000E40FF51FE45FFC4F908196FD17C02F5FD1
:101180003F4F2C30310571F7813009F069C0109262
:10119000800082E08093810010928500109284008C
:1011A000B19A80916F00826080936F00E091130488
:1011B0008E2F90E0FC01EE0FFF1FE80FF91FE45F98
:1011C000FC4F80818064808361E088E00E9400029F
:1011D00062E086E10E94000262E08AE10E94000271
:1011E00092E1A92E92E0B92E88248394CE01019633
:1011F0007C0150E040E060E672E08DE993E00E94FF
:10120000170500E012E0A016B10609F455C0F80178
:10121000C180D28096013327F901EA5DFD4F8491A8
:10122000F901E052FE4F9490F901E656FE4F74909A
:10123000772009F4F2C081110E946B01E72DF0E0E4
:10124000EE0FFF1FE45BFE4FA591B491EC919E223F
:1012500009F4DCC09AE1C916D10409F0DBC0E1C091
:10126000823061F41092900080939100109295006A
:101270001092940088BB8093710098CF833069F4FA
:101280001092A00082E08093A1001092A50010921D
:10129000A40089BB8093720089CF811187CF1092FF
:1012A000200182E0809321011092250110922401F7
:1012B0008ABB809373007ACF8FE692E00E94CF02C0
:1012C000892BD1F060E672E0C7010E9438050E94C8
:1012D000810297FD0EC08A30910559F089871A86E0
:1012E00041E050E0BE01675F7F4FC7010E94F004FC
:1012F000EECFC7010E94C0046EE372E0CE010996F2
:101300000E943805CE0109960E945F048C01188A5C
:101310001F861A8A198A1C8A1B8A60919D03709104
:101320009E036115710541F04091A1035091A20304
:10133000CE010F960E94170548E050E062E572E08A
:10134000CE010F960E94F004811104C0CE010F96C9
:101350000E94AE044AE0B701C8010E942A0AF701C0
:1013600001900020E9F73197AF014E195F09B701ED
:10137000CE010F960E94F004811104C0CE010F9699
:101380000E94AE0442E050E06BE572E0CE010F96A1
:101390000E94F004811104C0CE010F960E94AE0499
:1013A0006F8578896115710561F14B895C898DE9DB
:1013B00093E00E941705CE010F960E94C004CE0153
:1013C00009960E94C0044091A1035091A2034115C7
:1013D0005105A1F060919D0370919E03FB018081F6
:1013E000882361F08FE692E00E94310242E050E0F3
:1013F0006EE572E08FE692E00E9431020E94740373
:10140000F8CE8DE993E00E94AE04D5CFFAE1CF1675
:10141000D10439F4F801108206C08AE1C816D1045B
:10142000C9F3F80180820D5F1F4FEDCECF93DF939C
:101430008DE993E00E94C004C3E1D4E02897CE0177
:1014400002960E94C00483E0C33AD807B9F7DF913F
:10145000CF910895BB274A3031F4992322F4BDE29D
:10146000909581959F4F0C94360ABB27FB01552719
:10147000AA27880F991FAA1FA41710F0A41B8395F1
:101480005051B9F7A05DAA3308F0A95DA193009768
:1014900079F7B111B1931192CB010C944F0ADC0191
:1014A000FC01672F71917723E1F7329704C07C919B
:1014B0006D9370836291AE17BF07C8F30895991BAF
:1014C00079E004C0991F961708F0961B881F7A953B
:1014D000C9F780950895EE0FFF1F881F8BBF0790F7
:1014E000F691E02D19940F931F93CF93DF938230E1
:1014F000910510F482E090E0E0911804F091190455
:1015000030E020E0B0E0A0E0309799F421153105FB
:1015100009F44AC0281B390B24303105D8F58A81DB
:101520009B816115710589F1FB0193838283FE0123
:1015300011C0408151810281138148175907E0F0A1
:101540004817590799F4109761F012960C93129767
:1015500013961C933296CF01DF91CF911F910F917B
:1015600008950093180410931904F4CF2115310540
:1015700051F04217530738F0A901DB019A01BD0170
:10158000DF01F801C1CFEF01F9CF909319048093E7
:101590001804CDCFFE01E20FF31F819391932250E7
:1015A000310939832883D7CF20911604309117044D
:1015B000232B41F42091140230911502309317042B
:1015C0002093160420911202309113022115310547
:1015D00041F42DB73EB74091160250911702241BDB
:1015E000350BE0911604F0911704E217F307A0F40D
:1015F0002E1B3F0B2817390778F0AC014E5F5F4F69
:101600002417350748F04E0F5F1F5093170440937F
:101610001604819391939FCFF0E0E0E09CCFCF93AD
:10162000DF930097E9F0FC01329713821282A091B8
:101630001804B0911904ED0130E020E01097A1F4F6
:1016400020813181820F931F20911604309117045D
:101650002817390709F061C0F0931704E0931604C6
:10166000DF91CF910895EA01CE17DF07E8F54A81AF
:101670005B819E0141155105B1F7E901FB83EA83C6
:1016800049915991C40FD51FEC17FD0761F4808172
:1016900091810296840F951FE90199838883828145
:1016A00093819B838A83F0E0E0E012968D919C9178
:1016B00013970097B9F52D913C911197CD010296A2
:1016C000820F931F209116043091170428173907B1
:1016D00039F6309751F51092190410921804B0930E
:1016E0001704A0931604BCCFD383C28340815181D9
:1016F000840F951FC817D90761F44E5F5F4F88812B
:101700009981480F591F518340838A819B8193831C
:1017100082832115310509F0B0CFF0931904E093CD
:1017200018049ECFFD01DC01C0CF13821282D7CFF7
:101730004F925F926F927F928F929F92AF92BF92E1
:10174000CF92DF92EF92FF920F931F93CF93DF938D
:101750008C01009799F4CB01DF91CF911F910F91EC
:10176000FF90EF90DF90CF90BF90AF909F908F90C1
:101770007F906F905F904F900C94730AFC01E60F7E
:10178000F71F9C0122503109E217F30708F4AEC09D
:10179000D901CD91DC911197C617D70720F1C5303B
:1017A000D10578F0CE0104978617970750F0C61B35
:1017B000D70B2297C193D1936D937C93CF010E9455
:1017C0000F0BC801DF91CF911F910F91FF90EF9008
:1017D000DF90CF90BF90AF909F908F907F906F9051
:1017E0005F904F9008955B01AC1ABD0A4C018C0EBE
:1017F0009D1EA0911804B0911904512C412CF12C7C
:10180000E12C109731F580911604909117048815FA
:10181000990509F05CC04616570608F058C080913B
:10182000120290911302009741F48DB79EB7409138
:10183000160250911702841B950BE817F90708F060
:1018400055C0F0931704E0931604F9017183608387
:10185000B8CF8D919C91119712966C901297139618
:101860007C901397A815B90559F56C0142E0C40E98
:10187000D11CCA14DB0420F1AC014A195B09DA015E
:101880001296159780F06282738251834083D9014A
:101890006D937C93E114F10471F0D7011396FC93DE
:1018A000EE9312978ECF22968C0F9D1FF901918394
:1018B0008083F301EFCFF0931904E093180481CFF4
:1018C0004816590608F42C017D01D3019ACFCB01AB
:1018D0000E94730A7C01009749F0AE01B8010E9492
:1018E000790CC8010E940F0B87016BCF10E000E05C
:1018F00068CFFB01DC0102C001900D9241505040C5
:10190000D8F70895FB01DC018D9101908019011039
:10191000D9F3990B0895FB01DC0101900D92002091
:10192000E1F7089511E0C7E3D1E000E006C0802FA1
:10193000FE010E946B0A2196011DC833D10780E089
:081940000807A9F7F894FFCF96
:10194800000D00000C00000B00000A00001600004B
:101958001A0000001A04800000000000070331028A
:101968005E025403CF026D02C102730072750072E9
:1019780064006C75006C64006175006164006166E8
:10198800006162006D006D6F006D75006D69006D1E
:1019980064006166202837293A20002020000D0ABB
:0219A80000003D
:00000001FF
